{
  "abi": [
    {
      "inputs": [],
      "name": "InvalidInitialization",
      "type": "error"
    },
    {
      "inputs": [],
      "name": "NotInitializing",
      "type": "error"
    },
    {
      "inputs": [
        {
          "internalType": "address",
          "name": "owner",
          "type": "address"
        }
      ],
      "name": "OwnableInvalidOwner",
      "type": "error"
    },
    {
      "inputs": [
        {
          "internalType": "address",
          "name": "account",
          "type": "address"
        }
      ],
      "name": "OwnableUnauthorizedAccount",
      "type": "error"
    },
    {
      "anonymous": false,
      "inputs": [
        {
          "indexed": false,
          "internalType": "uint64",
          "name": "version",
          "type": "uint64"
        }
      ],
      "name": "Initialized",
      "type": "event"
    },
    {
      "anonymous": false,
      "inputs": [
        {
          "indexed": true,
          "internalType": "address",
          "name": "previousOwner",
          "type": "address"
        },
        {
          "indexed": true,
          "internalType": "address",
          "name": "newOwner",
          "type": "address"
        }
      ],
      "name": "OwnershipTransferred",
      "type": "event"
    },
    {
      "inputs": [
        {
          "internalType": "uint256[8]",
          "name": "claim",
          "type": "uint256[8]"
        }
      ],
      "name": "addClaim",
      "outputs": [],
      "stateMutability": "nonpayable",
      "type": "function"
    },
    {
      "inputs": [
        {
          "internalType": "uint256[8]",
          "name": "claim",
          "type": "uint256[8]"
        }
      ],
      "name": "addClaimAndTransit",
      "outputs": [],
      "stateMutability": "nonpayable",
      "type": "function"
    },
    {
      "inputs": [
        {
          "internalType": "uint256",
          "name": "hashIndex",
          "type": "uint256"
        },
        {
          "internalType": "uint256",
          "name": "hashValue",
          "type": "uint256"
        }
      ],
      "name": "addClaimHash",
      "outputs": [],
      "stateMutability": "nonpayable",
      "type": "function"
    },
    {
      "inputs": [
        {
          "internalType": "uint256",
          "name": "hashIndex",
          "type": "uint256"
        },
        {
          "internalType": "uint256",
          "name": "hashValue",
          "type": "uint256"
        }
      ],
      "name": "addClaimHashAndTransit",
      "outputs": [],
      "stateMutability": "nonpayable",
      "type": "function"
    },
    {
      "inputs": [
        {
          "components": [
            {
              "internalType": "uint256",
              "name": "schemaHash",
              "type": "uint256"
            },
            {
              "internalType": "uint8",
              "name": "idPosition",
              "type": "uint8"
            },
            {
              "internalType": "bool",
              "name": "expirable",
              "type": "bool"
            },
            {
              "internalType": "bool",
              "name": "updatable",
              "type": "bool"
            },
            {
              "internalType": "uint8",
              "name": "merklizedRootPosition",
              "type": "uint8"
            },
            {
              "internalType": "uint32",
              "name": "version",
              "type": "uint32"
            },
            {
              "internalType": "uint256",
              "name": "id",
              "type": "uint256"
            },
            {
              "internalType": "uint64",
              "name": "revocationNonce",
              "type": "uint64"
            },
            {
              "internalType": "uint64",
              "name": "expirationDate",
              "type": "uint64"
            },
            {
              "internalType": "uint256",
              "name": "merklizedRoot",
              "type": "uint256"
            },
            {
              "internalType": "uint256",
              "name": "indexDataSlotA",
              "type": "uint256"
            },
            {
              "internalType": "uint256",
              "name": "indexDataSlotB",
              "type": "uint256"
            },
            {
              "internalType": "uint256",
              "name": "valueDataSlotA",
              "type": "uint256"
            },
            {
              "internalType": "uint256",
              "name": "valueDataSlotB",
              "type": "uint256"
            }
          ],
          "internalType": "struct ClaimBuilder.ClaimData",
          "name": "claimData",
          "type": "tuple"
        }
      ],
      "name": "buildClaim",
      "outputs": [
        {
          "internalType": "uint256[8]",
          "name": "",
          "type": "uint256[8]"
        }
      ],
      "stateMutability": "pure",
      "type": "function"
    },
    {
      "inputs": [],
      "name": "calcIdentityState",
      "outputs": [
        {
          "internalType": "uint256",
          "name": "",
          "type": "uint256"
        }
      ],
      "stateMutability": "view",
      "type": "function"
    },
    {
      "inputs": [
        {
          "internalType": "uint256",
          "name": "claimIndexHash",
          "type": "uint256"
        }
      ],
      "name": "getClaimProof",
      "outputs": [
        {
          "components": [
            {
              "internalType": "uint256",
              "name": "root",
              "type": "uint256"
            },
            {
              "internalType": "bool",
              "name": "existence",
              "type": "bool"
            },
            {
              "internalType": "uint256[]",
              "name": "siblings",
              "type": "uint256[]"
            },
            {
              "internalType": "uint256",
              "name": "index",
              "type": "uint256"
            },
            {
              "internalType": "uint256",
              "name": "value",
              "type": "uint256"
            },
            {
              "internalType": "bool",
              "name": "auxExistence",
              "type": "bool"
            },
            {
              "internalType": "uint256",
              "name": "auxIndex",
              "type": "uint256"
            },
            {
              "internalType": "uint256",
              "name": "auxValue",
              "type": "uint256"
            }
          ],
          "internalType": "struct SmtLib.Proof",
          "name": "",
          "type": "tuple"
        }
      ],
      "stateMutability": "view",
      "type": "function"
    },
    {
      "inputs": [
        {
          "internalType": "uint256",
          "name": "claimIndexHash",
          "type": "uint256"
        },
        {
          "internalType": "uint256",
          "name": "root",
          "type": "uint256"
        }
      ],
      "name": "getClaimProofByRoot",
      "outputs": [
        {
          "components": [
            {
              "internalType": "uint256",
              "name": "root",
              "type": "uint256"
            },
            {
              "internalType": "bool",
              "name": "existence",
              "type": "bool"
            },
            {
              "internalType": "uint256[]",
              "name": "siblings",
              "type": "uint256[]"
            },
            {
              "internalType": "uint256",
              "name": "index",
              "type": "uint256"
            },
            {
              "internalType": "uint256",
              "name": "value",
              "type": "uint256"
            },
            {
              "internalType": "bool",
              "name": "auxExistence",
              "type": "bool"
            },
            {
              "internalType": "uint256",
              "name": "auxIndex",
              "type": "uint256"
            },
            {
              "internalType": "uint256",
              "name": "auxValue",
              "type": "uint256"
            }
          ],
          "internalType": "struct SmtLib.Proof",
          "name": "",
          "type": "tuple"
        }
      ],
      "stateMutability": "view",
      "type": "function"
    },
    {
      "inputs": [],
      "name": "getClaimsTreeRoot",
      "outputs": [
        {
          "internalType": "uint256",
          "name": "",
          "type": "uint256"
        }
      ],
      "stateMutability": "view",
      "type": "function"
    },
    {
      "inputs": [],
      "name": "getId",
      "outputs": [
        {
          "internalType": "uint256",
          "name": "",
          "type": "uint256"
        }
      ],
      "stateMutability": "view",
      "type": "function"
    },
    {
      "inputs": [],
      "name": "getIsOldStateGenesis",
      "outputs": [
        {
          "internalType": "bool",
          "name": "",
          "type": "bool"
        }
      ],
      "stateMutability": "view",
      "type": "function"
    },
    {
      "inputs": [],
      "name": "getLatestPublishedClaimsRoot",
      "outputs": [
        {
          "internalType": "uint256",
          "name": "",
          "type": "uint256"
        }
      ],
      "stateMutability": "view",
      "type": "function"
    },
    {
      "inputs": [],
      "name": "getLatestPublishedRevocationsRoot",
      "outputs": [
        {
          "internalType": "uint256",
          "name": "",
          "type": "uint256"
        }
      ],
      "stateMutability": "view",
      "type": "function"
    },
    {
      "inputs": [],
      "name": "getLatestPublishedRootsRoot",
      "outputs": [
        {
          "internalType": "uint256",
          "name": "",
          "type": "uint256"
        }
      ],
      "stateMutability": "view",
      "type": "function"
    },
    {
      "inputs": [],
      "name": "getLatestPublishedState",
      "outputs": [
        {
          "internalType": "uint256",
          "name": "",
          "type": "uint256"
        }
      ],
      "stateMutability": "view",
      "type": "function"
    },
    {
      "inputs": [
        {
          "internalType": "uint64",
          "name": "revocationNonce",
          "type": "uint64"
        }
      ],
      "name": "getRevocationProof",
      "outputs": [
        {
          "components": [
            {
              "internalType": "uint256",
              "name": "root",
              "type": "uint256"
            },
            {
              "internalType": "bool",
              "name": "existence",
              "type": "bool"
            },
            {
              "internalType": "uint256[]",
              "name": "siblings",
              "type": "uint256[]"
            },
            {
              "internalType": "uint256",
              "name": "index",
              "type": "uint256"
            },
            {
              "internalType": "uint256",
              "name": "value",
              "type": "uint256"
            },
            {
              "internalType": "bool",
              "name": "auxExistence",
              "type": "bool"
            },
            {
              "internalType": "uint256",
              "name": "auxIndex",
              "type": "uint256"
            },
            {
              "internalType": "uint256",
              "name": "auxValue",
              "type": "uint256"
            }
          ],
          "internalType": "struct SmtLib.Proof",
          "name": "",
          "type": "tuple"
        }
      ],
      "stateMutability": "view",
      "type": "function"
    },
    {
      "inputs": [
        {
          "internalType": "uint64",
          "name": "revocationNonce",
          "type": "uint64"
        },
        {
          "internalType": "uint256",
          "name": "root",
          "type": "uint256"
        }
      ],
      "name": "getRevocationProofByRoot",
      "outputs": [
        {
          "components": [
            {
              "internalType": "uint256",
              "name": "root",
              "type": "uint256"
            },
            {
              "internalType": "bool",
              "name": "existence",
              "type": "bool"
            },
            {
              "internalType": "uint256[]",
              "name": "siblings",
              "type": "uint256[]"
            },
            {
              "internalType": "uint256",
              "name": "index",
              "type": "uint256"
            },
            {
              "internalType": "uint256",
              "name": "value",
              "type": "uint256"
            },
            {
              "internalType": "bool",
              "name": "auxExistence",
              "type": "bool"
            },
            {
              "internalType": "uint256",
              "name": "auxIndex",
              "type": "uint256"
            },
            {
              "internalType": "uint256",
              "name": "auxValue",
              "type": "uint256"
            }
          ],
          "internalType": "struct SmtLib.Proof",
          "name": "",
          "type": "tuple"
        }
      ],
      "stateMutability": "view",
      "type": "function"
    },
    {
      "inputs": [
        {
          "internalType": "uint256",
          "name": "id",
          "type": "uint256"
        },
        {
          "internalType": "uint64",
          "name": "nonce",
          "type": "uint64"
        }
      ],
      "name": "getRevocationStatus",
      "outputs": [
        {
          "components": [
            {
              "components": [
                {
                  "internalType": "uint256",
                  "name": "state",
                  "type": "uint256"
                },
                {
                  "internalType": "uint256",
                  "name": "claimsTreeRoot",
                  "type": "uint256"
                },
                {
                  "internalType": "uint256",
                  "name": "revocationTreeRoot",
                  "type": "uint256"
                },
                {
                  "internalType": "uint256",
                  "name": "rootOfRoots",
                  "type": "uint256"
                }
              ],
              "internalType": "struct IOnchainCredentialStatusResolver.IdentityStateRoots",
              "name": "issuer",
              "type": "tuple"
            },
            {
              "components": [
                {
                  "internalType": "uint256",
                  "name": "root",
                  "type": "uint256"
                },
                {
                  "internalType": "bool",
                  "name": "existence",
                  "type": "bool"
                },
                {
                  "internalType": "uint256[]",
                  "name": "siblings",
                  "type": "uint256[]"
                },
                {
                  "internalType": "uint256",
                  "name": "index",
                  "type": "uint256"
                },
                {
                  "internalType": "uint256",
                  "name": "value",
                  "type": "uint256"
                },
                {
                  "internalType": "bool",
                  "name": "auxExistence",
                  "type": "bool"
                },
                {
                  "internalType": "uint256",
                  "name": "auxIndex",
                  "type": "uint256"
                },
                {
                  "internalType": "uint256",
                  "name": "auxValue",
                  "type": "uint256"
                }
              ],
              "internalType": "struct IOnchainCredentialStatusResolver.Proof",
              "name": "mtp",
              "type": "tuple"
            }
          ],
          "internalType": "struct IOnchainCredentialStatusResolver.CredentialStatus",
          "name": "",
          "type": "tuple"
        }
      ],
      "stateMutability": "view",
      "type": "function"
    },
    {
      "inputs": [
        {
          "internalType": "uint256",
          "name": "id",
          "type": "uint256"
        },
        {
          "internalType": "uint256",
          "name": "state",
          "type": "uint256"
        },
        {
          "internalType": "uint64",
          "name": "nonce",
          "type": "uint64"
        }
      ],
      "name": "getRevocationStatusByIdAndState",
      "outputs": [
        {
          "components": [
            {
              "components": [
                {
                  "internalType": "uint256",
                  "name": "state",
                  "type": "uint256"
                },
                {
                  "internalType": "uint256",
                  "name": "claimsTreeRoot",
                  "type": "uint256"
                },
                {
                  "internalType": "uint256",
                  "name": "revocationTreeRoot",
                  "type": "uint256"
                },
                {
                  "internalType": "uint256",
                  "name": "rootOfRoots",
                  "type": "uint256"
                }
              ],
              "internalType": "struct IOnchainCredentialStatusResolver.IdentityStateRoots",
              "name": "issuer",
              "type": "tuple"
            },
            {
              "components": [
                {
                  "internalType": "uint256",
                  "name": "root",
                  "type": "uint256"
                },
                {
                  "internalType": "bool",
                  "name": "existence",
                  "type": "bool"
                },
                {
                  "internalType": "uint256[]",
                  "name": "siblings",
                  "type": "uint256[]"
                },
                {
                  "internalType": "uint256",
                  "name": "index",
                  "type": "uint256"
                },
                {
                  "internalType": "uint256",
                  "name": "value",
                  "type": "uint256"
                },
                {
                  "internalType": "bool",
                  "name": "auxExistence",
                  "type": "bool"
                },
                {
                  "internalType": "uint256",
                  "name": "auxIndex",
                  "type": "uint256"
                },
                {
                  "internalType": "uint256",
                  "name": "auxValue",
                  "type": "uint256"
                }
              ],
              "internalType": "struct IOnchainCredentialStatusResolver.Proof",
              "name": "mtp",
              "type": "tuple"
            }
          ],
          "internalType": "struct IOnchainCredentialStatusResolver.CredentialStatus",
          "name": "",
          "type": "tuple"
        }
      ],
      "stateMutability": "view",
      "type": "function"
    },
    {
      "inputs": [],
      "name": "getRevocationsTreeRoot",
      "outputs": [
        {
          "internalType": "uint256",
          "name": "",
          "type": "uint256"
        }
      ],
      "stateMutability": "view",
      "type": "function"
    },
    {
      "inputs": [
        {
          "internalType": "uint256",
          "name": "claimsTreeRoot",
          "type": "uint256"
        }
      ],
      "name": "getRootProof",
      "outputs": [
        {
          "components": [
            {
              "internalType": "uint256",
              "name": "root",
              "type": "uint256"
            },
            {
              "internalType": "bool",
              "name": "existence",
              "type": "bool"
            },
            {
              "internalType": "uint256[]",
              "name": "siblings",
              "type": "uint256[]"
            },
            {
              "internalType": "uint256",
              "name": "index",
              "type": "uint256"
            },
            {
              "internalType": "uint256",
              "name": "value",
              "type": "uint256"
            },
            {
              "internalType": "bool",
              "name": "auxExistence",
              "type": "bool"
            },
            {
              "internalType": "uint256",
              "name": "auxIndex",
              "type": "uint256"
            },
            {
              "internalType": "uint256",
              "name": "auxValue",
              "type": "uint256"
            }
          ],
          "internalType": "struct SmtLib.Proof",
          "name": "",
          "type": "tuple"
        }
      ],
      "stateMutability": "view",
      "type": "function"
    },
    {
      "inputs": [
        {
          "internalType": "uint256",
          "name": "claimsTreeRoot",
          "type": "uint256"
        },
        {
          "internalType": "uint256",
          "name": "root",
          "type": "uint256"
        }
      ],
      "name": "getRootProofByRoot",
      "outputs": [
        {
          "components": [
            {
              "internalType": "uint256",
              "name": "root",
              "type": "uint256"
            },
            {
              "internalType": "bool",
              "name": "existence",
              "type": "bool"
            },
            {
              "internalType": "uint256[]",
              "name": "siblings",
              "type": "uint256[]"
            },
            {
              "internalType": "uint256",
              "name": "index",
              "type": "uint256"
            },
            {
              "internalType": "uint256",
              "name": "value",
              "type": "uint256"
            },
            {
              "internalType": "bool",
              "name": "auxExistence",
              "type": "bool"
            },
            {
              "internalType": "uint256",
              "name": "auxIndex",
              "type": "uint256"
            },
            {
              "internalType": "uint256",
              "name": "auxValue",
              "type": "uint256"
            }
          ],
          "internalType": "struct SmtLib.Proof",
          "name": "",
          "type": "tuple"
        }
      ],
      "stateMutability": "view",
      "type": "function"
    },
    {
      "inputs": [
        {
          "internalType": "uint256",
          "name": "state",
          "type": "uint256"
        }
      ],
      "name": "getRootsByState",
      "outputs": [
        {
          "components": [
            {
              "internalType": "uint256",
              "name": "claimsRoot",
              "type": "uint256"
            },
            {
              "internalType": "uint256",
              "name": "revocationsRoot",
              "type": "uint256"
            },
            {
              "internalType": "uint256",
              "name": "rootsRoot",
              "type": "uint256"
            }
          ],
          "internalType": "struct IdentityLib.Roots",
          "name": "",
          "type": "tuple"
        }
      ],
      "stateMutability": "view",
      "type": "function"
    },
    {
      "inputs": [],
      "name": "getRootsTreeRoot",
      "outputs": [
        {
          "internalType": "uint256",
          "name": "",
          "type": "uint256"
        }
      ],
      "stateMutability": "view",
      "type": "function"
    },
    {
      "inputs": [],
      "name": "getSmtDepth",
      "outputs": [
        {
          "internalType": "uint256",
          "name": "",
          "type": "uint256"
        }
      ],
      "stateMutability": "pure",
      "type": "function"
    },
    {
      "inputs": [
        {
          "internalType": "address",
          "name": "_stateContractAddr",
          "type": "address"
        }
      ],
      "name": "initialize",
      "outputs": [],
      "stateMutability": "nonpayable",
      "type": "function"
    },
    {
      "inputs": [],
      "name": "newClaimData",
      "outputs": [
        {
          "components": [
            {
              "internalType": "uint256",
              "name": "schemaHash",
              "type": "uint256"
            },
            {
              "internalType": "uint8",
              "name": "idPosition",
              "type": "uint8"
            },
            {
              "internalType": "bool",
              "name": "expirable",
              "type": "bool"
            },
            {
              "internalType": "bool",
              "name": "updatable",
              "type": "bool"
            },
            {
              "internalType": "uint8",
              "name": "merklizedRootPosition",
              "type": "uint8"
            },
            {
              "internalType": "uint32",
              "name": "version",
              "type": "uint32"
            },
            {
              "internalType": "uint256",
              "name": "id",
              "type": "uint256"
            },
            {
              "internalType": "uint64",
              "name": "revocationNonce",
              "type": "uint64"
            },
            {
              "internalType": "uint64",
              "name": "expirationDate",
              "type": "uint64"
            },
            {
              "internalType": "uint256",
              "name": "merklizedRoot",
              "type": "uint256"
            },
            {
              "internalType": "uint256",
              "name": "indexDataSlotA",
              "type": "uint256"
            },
            {
              "internalType": "uint256",
              "name": "indexDataSlotB",
              "type": "uint256"
            },
            {
              "internalType": "uint256",
              "name": "valueDataSlotA",
              "type": "uint256"
            },
            {
              "internalType": "uint256",
              "name": "valueDataSlotB",
              "type": "uint256"
            }
          ],
          "internalType": "struct ClaimBuilder.ClaimData",
          "name": "",
          "type": "tuple"
        }
      ],
      "stateMutability": "pure",
      "type": "function"
    },
    {
      "inputs": [],
      "name": "owner",
      "outputs": [
        {
          "internalType": "address",
          "name": "",
          "type": "address"
        }
      ],
      "stateMutability": "view",
      "type": "function"
    },
    {
      "inputs": [],
      "name": "renounceOwnership",
      "outputs": [],
      "stateMutability": "nonpayable",
      "type": "function"
    },
    {
      "inputs": [
        {
          "internalType": "uint64",
          "name": "revocationNonce",
          "type": "uint64"
        }
      ],
      "name": "revokeClaim",
      "outputs": [],
      "stateMutability": "nonpayable",
      "type": "function"
    },
    {
      "inputs": [
        {
          "internalType": "uint64",
          "name": "revocationNonce",
          "type": "uint64"
        }
      ],
      "name": "revokeClaimAndTransit",
      "outputs": [],
      "stateMutability": "nonpayable",
      "type": "function"
    },
    {
      "inputs": [
        {
          "internalType": "address",
          "name": "newOwner",
          "type": "address"
        }
      ],
      "name": "transferOwnership",
      "outputs": [],
      "stateMutability": "nonpayable",
      "type": "function"
    },
    {
      "inputs": [],
      "name": "transitState",
      "outputs": [],
      "stateMutability": "nonpayable",
      "type": "function"
    }
  ],
  "bytecode": {
    "object": "0x608060405234801561001057600080fd5b5061194e806100206000396000f3fe608060405234801561001057600080fd5b50600436106101fb5760003560e01c8063715018a61161011a578063b8db6871116100ad578063da68a0b11161007c578063da68a0b114610426578063e26ecb0b1461042e578063f2a8ed5a14610441578063f2fde38b14610454578063f84c7c1e1461046757600080fd5b8063b8db6871146103c2578063c1e32733146103f7578063c4d66de81461040a578063c6365a3b1461041d57600080fd5b8063961fc416116100e9578063961fc416146103805780639674cfa414610393578063aad729211461039c578063b57a40cb146103af57600080fd5b8063715018a61461030b57806373c0824414610313578063891eb608146103335780638da5cb5b1461034657600080fd5b8063412363d3116101925780635aa7396b116101615780635aa7396b146102d25780635b9c895d146102e55780635d1ca631146102fa5780636c87e2fa1461030357600080fd5b8063412363d3146102995780634ddad0b3146102ae578063523b8136146102b65780635584b091146102bf57600080fd5b8063310d0d5b116101ce578063310d0d5b1461026e5780633d59ec60146102815780633df432fc1461028a5780633f0c66481461029257600080fd5b806301c85c7714610200578063110c96a71461021b578063264850631461023b5780632d5c4f251461025b575b600080fd5b61020861047e565b6040519081526020015b60405180910390f35b61022e6102293660046111f2565b6104fc565b60405161021291906112bf565b61024e610249366004611305565b61051b565b6040516102129190611320565b61024e610269366004611333565b6105b2565b61024e61027c366004611333565b610649565b6101f554610208565b610208610698565b6028610208565b6102ac6102a7366004611355565b6106d4565b005b6102086106f0565b61028e54610208565b6102ac6102cd366004611333565b61072c565b6102ac6102e0366004611355565b6107aa565b6102ed610820565b6040516102129190611380565b6101f454610208565b6102ac610835565b6102ac6108a3565b61032661032136600461146b565b6108b7565b6040516102129190611484565b6102ac610341366004611305565b610938565b7f9016d09d72d40fdae2fd8ceac6b6234c7706214fd39c1cd1e609a0528c199300546040516001600160a01b039091168152602001610212565b6102ac61038e366004611333565b610988565b61028f54610208565b61022e6103aa3660046114b6565b6109a6565b61024e6103bd3660046114eb565b610bb0565b6103d56103d03660046114eb565b610bf6565b6040805182518152602080840151908201529181015190820152606001610212565b61024e6104053660046114eb565b610c96565b6102ac610418366004611504565b610cde565b61029054610208565b610208610df4565b61024e61043c36600461152d565b610e30565b6102ac61044f366004611305565b610e87565b6102ac610462366004611504565b610e98565b6101f65460ff166040519015158152602001610212565b60405163765c2c6160e01b81526101f4600482015260009073__$f65c4aabf90eae242bce3d3daa005e5d40$__9063765c2c61906024015b602060405180830381865af41580156104d3573d6000803e3d6000fd5b505050506040513d601f19601f820116820180604052508101906104f79190611557565b905090565b610504611056565b6101f5546105138482856109a6565b949350505050565b6105236110e2565b604051637d0aba4f60e01b81526101f460048201526001600160401b038316602482015273__$f65c4aabf90eae242bce3d3daa005e5d40$__90637d0aba4f906044015b600060405180830381865af4158015610584573d6000803e3d6000fd5b505050506040513d6000823e601f3d908101601f191682016040526105ac9190810190611665565b92915050565b6105ba6110e2565b60405163d55da6a360e01b81526101f46004820152602481018490526044810183905273__$f65c4aabf90eae242bce3d3daa005e5d40$__9063d55da6a3906064015b600060405180830381865af415801561061a573d6000803e3d6000fd5b505050506040513d6000823e601f3d908101601f191682016040526106429190810190611665565b9392505050565b6106516110e2565b604051636ac0c5c760e11b81526101f46004820152602481018490526044810183905273__$f65c4aabf90eae242bce3d3daa005e5d40$__9063d5818b8e906064016105fd565b604051631b8bf99b60e21b81526101f4600482015260009073__$f65c4aabf90eae242bce3d3daa005e5d40$__90636e2fe66c906024016104b6565b6106dc610ed3565b6106e5816107aa565b6106ed610835565b50565b604051631a3046d760e01b81526101f4600482015260009073__$f65c4aabf90eae242bce3d3daa005e5d40$__90631a3046d7906024016104b6565b610734610ed3565b6040516306fb157560e01b81526101f46004820152602481018390526044810182905273__$f65c4aabf90eae242bce3d3daa005e5d40$__906306fb15759060640160006040518083038186803b15801561078e57600080fd5b505af41580156107a2573d6000803e3d6000fd5b505050505050565b6107b2610ed3565b60405163e1f0eaa960e01b815273__$f65c4aabf90eae242bce3d3daa005e5d40$__9063e1f0eaa9906107ed906101f4908590600401611729565b60006040518083038186803b15801561080557600080fd5b505af4158015610819573d6000803e3d6000fd5b5050505050565b61082861112b565b61083061112b565b919050565b61083d610ed3565b60405163175ba3e960e11b81526101f4600482015273__$f65c4aabf90eae242bce3d3daa005e5d40$__90632eb747d29060240160006040518083038186803b15801561088957600080fd5b505af415801561089d573d6000803e3d6000fd5b50505050565b6108ab610ed3565b6108b56000610f2e565b565b6108bf6111bc565b6040516303af477f60e51b815273__$0cc19979d99306550853e0a445a59df756$__906375e8efe0906108f6908590600401611771565b61010060405180830381865af4158015610914573d6000803e3d6000fd5b505050506040513d601f19601f820116820180604052508101906105ac919061185c565b610940610ed3565b604051638ad7195d60e01b81526101f460048201526001600160401b038216602482015273__$f65c4aabf90eae242bce3d3daa005e5d40$__90638ad7195d906044016107ed565b610990610ed3565b61099a828261072c565b6109a2610835565b5050565b6109ae611056565b6101f45484146109fc5760405162461bcd60e51b8152602060048201526014602482015273092c8cadce8d2e8f240d2c840dad2e6dac2e8c6d60631b60448201526064015b60405180910390fd5b604051630b1a9cd360e01b81526101f460048201526024810184905260009073__$f65c4aabf90eae242bce3d3daa005e5d40$__90630b1a9cd390604401606060405180830381865af4158015610a57573d6000803e3d6000fd5b505050506040513d601f19601f82011682018060405250810190610a7b91906118bd565b6040805160808101825286815282516020808301919091528301805182840152838301516060830152519151630b2bcd1b60e11b81526101f460048201526001600160401b0387166024820152604481019290925291925060009073__$f65c4aabf90eae242bce3d3daa005e5d40$__906316579a3690606401600060405180830381865af4158015610b12573d6000803e3d6000fd5b505050506040513d6000823e601f3d908101601f19168201604052610b3a9190810190611665565b6040805161010081018252825181526020808401511515818301528284015182840152606080850151908301526080808501519083015260a08085015115159083015260c0808501519083015260e093840151938201939093528151808301909252938152908101929092525095945050505050565b610bb86110e2565b604051620cf08960e41b81526101f460048201526024810183905273__$f65c4aabf90eae242bce3d3daa005e5d40$__9062cf089090604401610567565b610c1a60405180606001604052806000815260200160008152602001600081525090565b604051630b1a9cd360e01b81526101f460048201526024810183905273__$f65c4aabf90eae242bce3d3daa005e5d40$__90630b1a9cd390604401606060405180830381865af4158015610c72573d6000803e3d6000fd5b505050506040513d601f19601f820116820180604052508101906105ac91906118bd565b610c9e6110e2565b6040516397ac539160e01b81526101f460048201526024810183905273__$f65c4aabf90eae242bce3d3daa005e5d40$__906397ac539190604401610567565b7ff0c57e16840df040f15088dc2f81fe391c3923bec73e23a9662efc9c229c6a008054600160401b810460ff1615906001600160401b0316600081158015610d235750825b90506000826001600160401b03166001148015610d3f5750303b155b905081158015610d4d575080155b15610d6b5760405163f92ee8a960e01b815260040160405180910390fd5b845467ffffffffffffffff191660011785558315610d9557845460ff60401b1916600160401b1785555b610d9e86610f9f565b610da733610ff4565b83156107a257845460ff60401b19168555604051600181527fc7f505b2f371ae2175ee4913f4499e1f2633a7b5936321eed1cdaeb6115181d29060200160405180910390a1505050505050565b604051631e75e7f360e01b81526101f4600482015260009073__$f65c4aabf90eae242bce3d3daa005e5d40$__90631e75e7f3906024016104b6565b610e386110e2565b604051630b2bcd1b60e11b81526101f460048201526001600160401b03841660248201526044810183905273__$f65c4aabf90eae242bce3d3daa005e5d40$__906316579a36906064016105fd565b610e8f610ed3565b6106e581610938565b610ea0610ed3565b6001600160a01b038116610eca57604051631e4fbdf760e01b8152600060048201526024016109f3565b6106ed81610f2e565b33610f057f9016d09d72d40fdae2fd8ceac6b6234c7706214fd39c1cd1e609a0528c199300546001600160a01b031690565b6001600160a01b0316146108b55760405163118cdaa760e01b81523360048201526024016109f3565b7f9016d09d72d40fdae2fd8ceac6b6234c7706214fd39c1cd1e609a0528c19930080546001600160a01b031981166001600160a01b03848116918217845560405192169182907f8be0079c531659141344cd1fd0a4f28419497f9722a3daafe3b4186f6b6457e090600090a3505050565b60405163d3cd4e9b60e01b81526101f460048201526001600160a01b03821660248201523060448201526028606482015273__$f65c4aabf90eae242bce3d3daa005e5d40$__9063d3cd4e9b906084016107ed565b610ffc611005565b6106ed8161104e565b7ff0c57e16840df040f15088dc2f81fe391c3923bec73e23a9662efc9c229c6a0054600160401b900460ff166108b557604051631afcd79f60e31b815260040160405180910390fd5b610ea0611005565b604051806040016040528061108c6040518060800160405280600081526020016000815260200160008152602001600081525090565b81526020016110dd6040518061010001604052806000815260200160001515815260200160608152602001600081526020016000815260200160001515815260200160008152602001600081525090565b905290565b6040518061010001604052806000815260200160001515815260200160608152602001600081526020016000815260200160001515815260200160008152602001600081525090565b604051806101c0016040528060008152602001600060ff168152602001600015158152602001600015158152602001600060ff168152602001600063ffffffff1681526020016000815260200160006001600160401b0316815260200160006001600160401b0316815260200160008152602001600081526020016000815260200160008152602001600081525090565b6040518061010001604052806008906020820280368337509192915050565b80356001600160401b038116811461083057600080fd5b6000806040838503121561120557600080fd5b82359150611215602084016111db565b90509250929050565b8051825260208082015115158184015260408083015161010091850182905280519185018290526000926101208601929181019184905b808210156112755783518552938201939282019260019190910190611255565b50505050606083015160608501526080830151608085015260a08301516112a060a086018215159052565b5060c083015160c085015260e083015160e08501528091505092915050565b60208152600082518051602084015260208101516040840152604081015160608401526060810151608084015250602083015160a08084015261051360c084018261121e565b60006020828403121561131757600080fd5b610642826111db565b602081526000610642602083018461121e565b6000806040838503121561134657600080fd5b50508035926020909101359150565b600061010080838503121561136957600080fd5b83818401111561137857600080fd5b509092915050565b815181526020808301516101c083019161139e9084018260ff169052565b5060408301516113b2604084018215159052565b5060608301516113c6606084018215159052565b5060808301516113db608084018260ff169052565b5060a08301516113f360a084018263ffffffff169052565b5060c083015160c083015260e083015161141860e08401826001600160401b03169052565b50610100838101516001600160401b03169083015261012080840151908301526101408084015190830152610160808401519083015261018080840151908301526101a092830151929091019190915290565b60006101c0828403121561147e57600080fd5b50919050565b6101008101818360005b60088110156114ad57815183526020928301929091019060010161148e565b50505092915050565b6000806000606084860312156114cb57600080fd5b83359250602084013591506114e2604085016111db565b90509250925092565b6000602082840312156114fd57600080fd5b5035919050565b60006020828403121561151657600080fd5b81356001600160a01b038116811461064257600080fd5b6000806040838503121561154057600080fd5b611549836111db565b946020939093013593505050565b60006020828403121561156957600080fd5b5051919050565b634e487b7160e01b600052604160045260246000fd5b60405161010081016001600160401b03811182821017156115a9576115a9611570565b60405290565b80151581146106ed57600080fd5b8051610830816115af565b600082601f8301126115d957600080fd5b815160206001600160401b03808311156115f5576115f5611570565b8260051b604051601f19603f8301168101818110848211171561161a5761161a611570565b604052938452602081870181019490810192508785111561163a57600080fd5b6020870191505b8482101561165a57815183529183019190830190611641565b979650505050505050565b60006020828403121561167757600080fd5b81516001600160401b038082111561168e57600080fd5b9083019061010082860312156116a357600080fd5b6116ab611586565b825181526116bb602084016115bd565b60208201526040830151828111156116d257600080fd5b6116de878286016115c8565b604083015250606083015160608201526080830151608082015261170460a084016115bd565b60a082015260c083015160c082015260e083015160e082015280935050505092915050565b82815261012081016101008360208401379392505050565b803560ff8116811461083057600080fd5b8035610830816115af565b803563ffffffff8116811461083057600080fd5b813581526101c0810161178660208401611741565b60ff16602083015261179a60408401611752565b151560408301526117ad60608401611752565b151560608301526117c060808401611741565b60ff1660808301526117d460a0840161175d565b63ffffffff1660a083015260c083810135908301526117f560e084016111db565b6001600160401b031660e08301526101006118118482016111db565b6001600160401b03169083015261012083810135908301526101408084013590830152610160808401359083015261018080840135908301526101a092830135929091019190915290565b600061010080838503121561187057600080fd5b83601f84011261187f57600080fd5b611887611586565b90830190808583111561189957600080fd5b845b838110156118b357805183526020928301920161189b565b5095945050505050565b6000606082840312156118cf57600080fd5b604051606081018181106001600160401b03821117156118f1576118f1611570565b8060405250825181526020830151602082015260408301516040820152809150509291505056fea2646970667358221220c89be9dc7d09e332a97e4ce137a31ce0528fd292454b4c199e20f553485bae7464736f6c63430008170033",
    "linkReferences": {
      "lib/contracts/contracts/lib/ClaimBuilder.sol": {
        "ClaimBuilder": [
          {
            "start": 2286,
            "length": 20
          }
        ]
      },
      "lib/contracts/contracts/lib/IdentityLib.sol": {
        "IdentityLib": [
          {
            "start": 1208,
            "length": 20
          },
          {
            "start": 1385,
            "length": 20
          },
          {
            "start": 1535,
            "length": 20
          },
          {
            "start": 1686,
            "length": 20
          },
          {
            "start": 1746,
            "length": 20
          },
          {
            "start": 1834,
            "length": 20
          },
          {
            "start": 1913,
            "length": 20
          },
          {
            "start": 2017,
            "length": 20
          },
          {
            "start": 2164,
            "length": 20
          },
          {
            "start": 2438,
            "length": 20
          },
          {
            "start": 2621,
            "length": 20
          },
          {
            "start": 2808,
            "length": 20
          },
          {
            "start": 3061,
            "length": 20
          },
          {
            "start": 3160,
            "length": 20
          },
          {
            "start": 3292,
            "length": 20
          },
          {
            "start": 3630,
            "length": 20
          },
          {
            "start": 3717,
            "length": 20
          },
          {
            "start": 4082,
            "length": 20
          }
        ]
      }
    }
  },
  "methodIdentifiers": {
    "addClaim(uint256[8])": "5aa7396b",
    "addClaimAndTransit(uint256[8])": "412363d3",
    "addClaimHash(uint256,uint256)": "5584b091",
    "addClaimHashAndTransit(uint256,uint256)": "961fc416",
    "buildClaim((uint256,uint8,bool,bool,uint8,uint32,uint256,uint64,uint64,uint256,uint256,uint256,uint256,uint256))": "73c08244",
    "calcIdentityState()": "4ddad0b3",
    "getClaimProof(uint256)": "b57a40cb",
    "getClaimProofByRoot(uint256,uint256)": "310d0d5b",
    "getClaimsTreeRoot()": "3df432fc",
    "getId()": "5d1ca631",
    "getIsOldStateGenesis()": "f84c7c1e",
    "getLatestPublishedClaimsRoot()": "523b8136",
    "getLatestPublishedRevocationsRoot()": "9674cfa4",
    "getLatestPublishedRootsRoot()": "c6365a3b",
    "getLatestPublishedState()": "3d59ec60",
    "getRevocationProof(uint64)": "26485063",
    "getRevocationProofByRoot(uint64,uint256)": "e26ecb0b",
    "getRevocationStatus(uint256,uint64)": "110c96a7",
    "getRevocationStatusByIdAndState(uint256,uint256,uint64)": "aad72921",
    "getRevocationsTreeRoot()": "01c85c77",
    "getRootProof(uint256)": "c1e32733",
    "getRootProofByRoot(uint256,uint256)": "2d5c4f25",
    "getRootsByState(uint256)": "b8db6871",
    "getRootsTreeRoot()": "da68a0b1",
    "getSmtDepth()": "3f0c6648",
    "initialize(address)": "c4d66de8",
    "newClaimData()": "5b9c895d",
    "owner()": "8da5cb5b",
    "renounceOwnership()": "715018a6",
    "revokeClaim(uint64)": "891eb608",
    "revokeClaimAndTransit(uint64)": "f2a8ed5a",
    "transferOwnership(address)": "f2fde38b",
    "transitState()": "6c87e2fa"
  },
  "id": 59
}