{
  "abi": [
    {
      "inputs": [],
      "name": "IDENTITY_MAX_SMT_DEPTH",
      "outputs": [
        {
          "internalType": "uint256",
          "name": "",
          "type": "uint256"
        }
      ],
      "stateMutability": "view",
      "type": "function"
    }
  ],
  "bytecode": {
    "object": "0x611e9f61003a600b82828239805160001a60731461002d57634e487b7160e01b600052600060045260246000fd5b30600052607381538281f3fe73000000000000000000000000000000000000000030146080604052600436106101145760003560e01c80636e2fe66c116100ac57806397ac53911161007b57806397ac539114610261578063d3cd4e9b14610274578063d55da6a314610294578063d5818b8e146102a7578063e1f0eaa9146102ba57600080fd5b80636e2fe66c14610208578063765c2c611461021b5780637d0aba4f1461022e5780638ad7195d1461024157600080fd5b80631a3046d7116100e85780631a3046d7146101ac5780631e75e7f3146101cd5780632c72e822146101e05780632eb747d2146101e857600080fd5b8062cf08901461011957806306fb1575146101425780630b1a9cd31461016457806316579a3614610199575b600080fd5b61012c6101273660046118ad565b6102da565b60405161013991906118cf565b60405180910390f35b81801561014e57600080fd5b5061016261015d36600461197c565b61037a565b005b6101776101723660046118ad565b6103f2565b6040805182518152602080840151908201529181015190820152606001610139565b61012c6101a73660046119c5565b6104fc565b6101bf6101ba3660046119fa565b61059e565b604051908152602001610139565b6101bf6101db3660046119fa565b610799565b6101bf602881565b8180156101f457600080fd5b506101626102033660046119fa565b6107d6565b6101bf6102163660046119fa565b610bd1565b6101bf6102293660046119fa565b610c0e565b61012c61023c366004611a13565b610c4b565b81801561024d57600080fd5b5061016261025c366004611a13565b610caa565b61012c61026f3660046118ad565b610d2a565b81801561028057600080fd5b5061016261028f366004611a56565b610d80565b61012c6102a236600461197c565b610fdd565b61012c6102b536600461197c565b61102d565b8180156102c657600080fd5b506101626102d5366004611a9a565b61107d565b6102e2611846565b609a830154604051633ce0bd4b60e11b815260048086019082015260248101849052604481019190915273__$00130f1c4106bd61ba9ecb87f796eefe03$__906379c17a96906064015b600060405180830381865af4158015610349573d6000803e3d6000fd5b505050506040513d6000823e601f3d908101601f191682016040526103719190810190611bbe565b90505b92915050565b60405163c1d29f0160e01b8152600484810190820152602481018390526044810182905273__$00130f1c4106bd61ba9ecb87f796eefe03$__9063c1d29f019060640160006040518083038186803b1580156103d557600080fd5b505af41580156103e9573d6000803e3d6000fd5b50505050505050565b61041660405180606001604052806000815260200160008152602001600081525090565b60008281526003840160205260409020541515806104465750600082815260038401602052604090206001015415155b806104635750600082815260038401602052604090206002015415155b6104bf5760405162461bcd60e51b815260206004820152602260248201527f526f6f747320666f72207468697320737461746520646f65736e2774206578696044820152611cdd60f21b60648201526084015b60405180910390fd5b5060009081526003919091016020908152604091829020825160608101845281548152600182015492810192909252600201549181019190915290565b610504611846565b604051633ce0bd4b60e11b815260368501600482015267ffffffffffffffff841660248201526044810183905273__$00130f1c4106bd61ba9ecb87f796eefe03$__906379c17a96906064015b600060405180830381865af415801561056e573d6000803e3d6000fd5b505050506040513d6000823e601f3d908101601f191682016040526105969190810190611bbe565b949350505050565b6040805160608101918290526379f9712560e01b90915260048201606482015260009073__$e9b48f3e79942e29f408c51ea49e52735e$__906325cc70e8908073__$00130f1c4106bd61ba9ecb87f796eefe03$__6379f9712560848301602060405180830381865af4158015610619573d6000803e3d6000fd5b505050506040513d601f19601f8201168201806040525081019061063d9190611c83565b81526040516379f9712560e01b815260368701600482015260209091019073__$00130f1c4106bd61ba9ecb87f796eefe03$__906379f9712590602401602060405180830381865af4158015610697573d6000803e3d6000fd5b505050506040513d601f19601f820116820180604052508101906106bb9190611c83565b81526040516379f9712560e01b815260688701600482015260209091019073__$00130f1c4106bd61ba9ecb87f796eefe03$__906379f9712590602401602060405180830381865af4158015610715573d6000803e3d6000fd5b505050506040513d601f19601f820116820180604052508101906107399190611c83565b8152506040518263ffffffff1660e01b81526004016107589190611c9c565b602060405180830381865af4158015610775573d6000803e3d6000fd5b505050506040513d601f19601f820116820180604052508101906103749190611c83565b6040516379f9712560e01b815260688201600482015260009073__$00130f1c4106bd61ba9ecb87f796eefe03$__906379f9712590602401610758565b60018101546040516379f9712560e01b815260048084019082015260009073__$00130f1c4106bd61ba9ecb87f796eefe03$__906379f9712590602401602060405180830381865af4158015610830573d6000803e3d6000fd5b505050506040513d601f19601f820116820180604052508101906108549190611c83565b6040516379f9712560e01b815260368501600482015290915060009073__$00130f1c4106bd61ba9ecb87f796eefe03$__906379f9712590602401602060405180830381865af41580156108ac573d6000803e3d6000fd5b505050506040513d601f19601f820116820180604052508101906108d09190611c83565b6040516379f9712560e01b815260688601600482015290915060009073__$00130f1c4106bd61ba9ecb87f796eefe03$__906379f9712590602401602060405180830381865af4158015610928573d6000803e3d6000fd5b505050506040513d601f19601f8201168201806040525081019061094c9190611c83565b609a860154909150831415806109665750609b8501548214155b806109755750609c8501548114155b6109c15760405162461bcd60e51b815260206004820152601e60248201527f4964656e7469747920747265657320686176656e2774206368616e676564000060448201526064016104b6565b609a8501548314610a405760405163c1d29f0160e01b8152606886016004820152602481018490526000604482015273__$00130f1c4106bd61ba9ecb87f796eefe03$__9063c1d29f019060640160006040518083038186803b158015610a2757600080fd5b505af4158015610a3b573d6000803e3d6000fd5b505050505b6000610a4b8661059e565b60018701819055609a8701859055609b87018490556040516379f9712560e01b815260688801600482015290915073__$00130f1c4106bd61ba9ecb87f796eefe03$__906379f9712590602401602060405180830381865af4158015610ab5573d6000803e3d6000fd5b505050506040513d601f19601f82011682018060405250810190610ad99190611c83565b609c870181905560028701805460ff198116909155600188015460408051606081018252609a8b01548152609b8b015460208201529081019390935260ff90911691610b2691899161128c565b600287015487546101009091046001600160a01b031690637d0dcba590888585600160006040519080825280601f01601f191660200182016040528015610b74576020820181803683370190505b506040518763ffffffff1660e01b8152600401610b9696959493929190611ccd565b600060405180830381600087803b158015610bb057600080fd5b505af1158015610bc4573d6000803e3d6000fd5b5050505050505050505050565b6040516379f9712560e01b815260048281019082015260009073__$00130f1c4106bd61ba9ecb87f796eefe03$__906379f9712590602401610758565b6040516379f9712560e01b815260368201600482015260009073__$00130f1c4106bd61ba9ecb87f796eefe03$__906379f9712590602401610758565b610c53611846565b609b830154604051633ce0bd4b60e11b815260368501600482015267ffffffffffffffff84166024820152604481019190915273__$00130f1c4106bd61ba9ecb87f796eefe03$__906379c17a969060640161032c565b60405163c1d29f0160e01b815260368301600482015267ffffffffffffffff821660248201526000604482015273__$00130f1c4106bd61ba9ecb87f796eefe03$__9063c1d29f019060640160006040518083038186803b158015610d0e57600080fd5b505af4158015610d22573d6000803e3d6000fd5b505050505050565b610d32611846565b609c830154604051633ce0bd4b60e11b815260688501600482015260248101849052604481019190915273__$00130f1c4106bd61ba9ecb87f796eefe03$__906379c17a969060640161032c565b6028811115610de55760405162461bcd60e51b815260206004820152602b60248201527f534d542064657074682069732067726561746572207468616e206d617820616c60448201526a0d8deeecac840c8cae0e8d60ab1b60648201526084016104b6565b60028401805460016001600160a81b03199091166101006001600160a01b0387160260ff191617179055604051639e43b81360e01b81526004808601908201526024810182905273__$00130f1c4106bd61ba9ecb87f796eefe03$__90639e43b8139060440160006040518083038186803b158015610e6357600080fd5b505af4158015610e77573d6000803e3d6000fd5b5050604051639e43b81360e01b81526036870160048201526024810184905273__$00130f1c4106bd61ba9ecb87f796eefe03$__9250639e43b813915060440160006040518083038186803b158015610ecf57600080fd5b505af4158015610ee3573d6000803e3d6000fd5b5050604051639e43b81360e01b81526068870160048201526024810184905273__$00130f1c4106bd61ba9ecb87f796eefe03$__9250639e43b813915060440160006040518083038186803b158015610f3b57600080fd5b505af4158015610f4f573d6000803e3d6000fd5b50505050610fd58460020160019054906101000a90046001600160a01b03166001600160a01b031663133fe3856040518163ffffffff1660e01b8152600401602060405180830381865afa158015610fab573d6000803e3d6000fd5b505050506040513d601f19601f82011682018060405250810190610fcf9190611d42565b8361135c565b909355505050565b610fe5611846565b604051633ce0bd4b60e11b8152606885016004820152602481018490526044810183905273__$00130f1c4106bd61ba9ecb87f796eefe03$__906379c17a9690606401610551565b611035611846565b604051633ce0bd4b60e11b8152600485810190820152602481018490526044810183905273__$00130f1c4106bd61ba9ecb87f796eefe03$__906379c17a9690606401610551565b61108561188f565b61108d61188f565b60005b60048160ff16101561111657838160ff16600881106110b1576110b1611d73565b6020020135838260ff16600481106110cb576110cb611d73565b6020020152836110dc826004611d9f565b60ff16600881106110ef576110ef611d73565b6020020135828260ff166004811061110957611109611d73565b6020020152600101611090565b5060405163248f667760e01b815260009073__$1534c14eae83f3cb800b9d0730c71ce180$__9063248f667790611151908690600401611db8565b602060405180830381865af415801561116e573d6000803e3d6000fd5b505050506040513d601f19601f820116820180604052508101906111929190611c83565b9050600073__$1534c14eae83f3cb800b9d0730c71ce180$__63248f6677846040518263ffffffff1660e01b81526004016111cd9190611db8565b602060405180830381865af41580156111ea573d6000803e3d6000fd5b505050506040513d601f19601f8201168201806040525081019061120e9190611c83565b60405163c1d29f0160e01b8152600488810190820152602481018490526044810182905290915073__$00130f1c4106bd61ba9ecb87f796eefe03$__9063c1d29f019060640160006040518083038186803b15801561126c57600080fd5b505af4158015611280573d6000803e3d6000fd5b50505050505050505050565b60008281526003840160205260409020541580156112bb57506000828152600384016020526040902060010154155b80156112d857506000828152600384016020526040902060020154155b61132f5760405162461bcd60e51b815260206004820152602260248201527f526f6f747320666f72207468697320737461746520616c7265616479206578696044820152611cdd60f21b60648201526084016104b6565b60009182526003909201602090815260409182902083518155908301516001820155910151600290910155565b60006001600160a01b038216610596846113758361137a565b6114bf565b60008190506008817eff00ff00ff00ff00ff00ff00ff00ff00ff00ff00ff00ff00ff00ff00ff00ff16901b6008827fff00ff00ff00ff00ff00ff00ff00ff00ff00ff00ff00ff00ff00ff00ff00ff0016901c1790506010817dffff0000ffff0000ffff0000ffff0000ffff0000ffff0000ffff0000ffff16901b6010827fffff0000ffff0000ffff0000ffff0000ffff0000ffff0000ffff0000ffff000016901c1790506020817bffffffff00000000ffffffff00000000ffffffff00000000ffffffff16901b6020827fffffffff00000000ffffffff00000000ffffffff00000000ffffffff0000000016901c17905060408177ffffffffffffffff0000000000000000ffffffffffffffff16901b60408277ffffffffffffffff0000000000000000ffffffffffffffff1916901c179050608081901b608082901c179050919050565b6000806114d36114ce8461137a565b611616565b905060006114f082601b84516114e99190611de0565b601b611640565b6040516001600160f01b031987166020820152909150600090611525906022016040516020818303038152906040528361164d565b90508051601d146115485760405162461bcd60e51b81526004016104b690611df3565b600061156a61155683611659565b600881811b62ffff001691901c60ff161790565b6040805160f083901b6001600160f01b031916602082015281516002818303018152602290910190915290915060006115a3848361164d565b90508051601f146115f65760405162461bcd60e51b815260206004820181905260248201527f69644279746573207265717569726573203331206c656e67746820617272617960448201526064016104b6565b611609611604826020015190565b61137a565b9998505050505050505050565b60408051602080825281830190925260609160208201818036833750505060208101929092525090565b60606105968484846116bc565b606061037183836117c9565b60008151601d1461167c5760405162461bcd60e51b81526004016104b690611df3565b60005b82518110156116b65782818151811061169a5761169a611d73565b01602001516116ac9060f81c83611e34565b915060010161167f565b50919050565b6060816116ca81601f611e56565b10156117095760405162461bcd60e51b815260206004820152600e60248201526d736c6963655f6f766572666c6f7760901b60448201526064016104b6565b6117138284611e56565b845110156117575760405162461bcd60e51b8152602060048201526011602482015270736c6963655f6f75744f66426f756e647360781b60448201526064016104b6565b60608215801561177657604051915060008252602082016040526117c0565b6040519150601f8416801560200281840101858101878315602002848b0101015b818310156117af578051835260209283019201611797565b5050858452601f01601f1916604052505b50949350505050565b6060806040519050835180825260208201818101602087015b818310156117fa5780518352602092830192016117e2565b50855184518101855292509050808201602086015b8183101561182757805183526020928301920161180f565b508651929092011591909101601f01601f191660405250905092915050565b6040518061010001604052806000815260200160001515815260200160608152602001600081526020016000815260200160001515815260200160008152602001600081525090565b60405180608001604052806004906020820280368337509192915050565b600080604083850312156118c057600080fd5b50508035926020909101359150565b60006020808352610120830184518285015281850151151560408501526040850151610100806060870152828251808552610140880191508584019450600093505b808410156119315784518252938501936001939093019290850190611911565b5060608801516080880152608088015160a088015260a0880151945061195b60c088018615159052565b60c088015160e088015260e088015182880152809550505050505092915050565b60008060006060848603121561199157600080fd5b505081359360208301359350604090920135919050565b803567ffffffffffffffff811681146119c057600080fd5b919050565b6000806000606084860312156119da57600080fd5b833592506119ea602085016119a8565b9150604084013590509250925092565b600060208284031215611a0c57600080fd5b5035919050565b60008060408385031215611a2657600080fd5b82359150611a36602084016119a8565b90509250929050565b80356001600160a01b03811681146119c057600080fd5b60008060008060808587031215611a6c57600080fd5b84359350611a7c60208601611a3f565b9250611a8a60408601611a3f565b9396929550929360600135925050565b600080610120808486031215611aaf57600080fd5b83359250848185011115611ac257600080fd5b506020830190509250929050565b634e487b7160e01b600052604160045260246000fd5b604051610100810167ffffffffffffffff81118282101715611b0a57611b0a611ad0565b60405290565b805180151581146119c057600080fd5b600082601f830112611b3157600080fd5b8151602067ffffffffffffffff80831115611b4e57611b4e611ad0565b8260051b604051601f19603f83011681018181108482111715611b7357611b73611ad0565b6040529384526020818701810194908101925087851115611b9357600080fd5b6020870191505b84821015611bb357815183529183019190830190611b9a565b979650505050505050565b600060208284031215611bd057600080fd5b815167ffffffffffffffff80821115611be857600080fd5b908301906101008286031215611bfd57600080fd5b611c05611ae6565b82518152611c1560208401611b10565b6020820152604083015182811115611c2c57600080fd5b611c3887828601611b20565b6040830152506060830151606082015260808301516080820152611c5e60a08401611b10565b60a082015260c083015160c082015260e083015160e082015280935050505092915050565b600060208284031215611c9557600080fd5b5051919050565b60608101818360005b6003811015611cc4578151835260209283019290910190600101611ca5565b50505092915050565b86815260006020876020840152866040840152851515606084015284608084015260c060a084015283518060c085015260005b81811015611d1c5785810183015185820160e001528201611d00565b50600060e0828601015260e0601f19601f83011685010192505050979650505050505050565b600060208284031215611d5457600080fd5b81516001600160f01b031981168114611d6c57600080fd5b9392505050565b634e487b7160e01b600052603260045260246000fd5b634e487b7160e01b600052601160045260246000fd5b60ff818116838216019081111561037457610374611d89565b60808101818360005b6004811015611cc4578151835260209283019290910190600101611dc1565b8181038181111561037457610374611d89565b60208082526021908201527f436865636b73756d207265717569726573203239206c656e67746820617272616040820152607960f81b606082015260800190565b61ffff818116838216019080821115611e4f57611e4f611d89565b5092915050565b8082018082111561037457610374611d8956fea2646970667358221220c75c27447d7fefbe7a3c44830101576c9e4c987dccfaf410fb43b809510f952064736f6c63430008170033",
    "linkReferences": {
      "lib/contracts/contracts/lib/Poseidon.sol": {
        "PoseidonUnit3L": [
          {
            "start": 1533,
            "length": 20
          }
        ],
        "PoseidonUnit4L": [
          {
            "start": 4451,
            "length": 20
          },
          {
            "start": 4562,
            "length": 20
          }
        ]
      },
      "lib/contracts/contracts/lib/SmtLib.sol": {
        "SmtLib": [
          {
            "start": 840,
            "length": 20
          },
          {
            "start": 986,
            "length": 20
          },
          {
            "start": 1389,
            "length": 20
          },
          {
            "start": 1562,
            "length": 20
          },
          {
            "start": 1687,
            "length": 20
          },
          {
            "start": 1813,
            "length": 20
          },
          {
            "start": 2030,
            "length": 20
          },
          {
            "start": 2096,
            "length": 20
          },
          {
            "start": 2220,
            "length": 20
          },
          {
            "start": 2344,
            "length": 20
          },
          {
            "start": 2604,
            "length": 20
          },
          {
            "start": 2741,
            "length": 20
          },
          {
            "start": 3110,
            "length": 20
          },
          {
            "start": 3171,
            "length": 20
          },
          {
            "start": 3266,
            "length": 20
          },
          {
            "start": 3347,
            "length": 20
          },
          {
            "start": 3480,
            "length": 20
          },
          {
            "start": 3688,
            "length": 20
          },
          {
            "start": 3794,
            "length": 20
          },
          {
            "start": 3902,
            "length": 20
          },
          {
            "start": 4165,
            "length": 20
          },
          {
            "start": 4245,
            "length": 20
          },
          {
            "start": 4721,
            "length": 20
          }
        ]
      }
    }
  },
  "methodIdentifiers": {
    "IDENTITY_MAX_SMT_DEPTH()": "2c72e822",
    "addClaim(IdentityLib.Data storage,uint256[8])": "e1f0eaa9",
    "addClaimHash(IdentityLib.Data storage,uint256,uint256)": "06fb1575",
    "calcIdentityState(IdentityLib.Data storage)": "1a3046d7",
    "getClaimProof(IdentityLib.Data storage,uint256)": "00cf0890",
    "getClaimProofByRoot(IdentityLib.Data storage,uint256,uint256)": "d5818b8e",
    "getClaimsTreeRoot(IdentityLib.Data storage)": "6e2fe66c",
    "getRevocationProof(IdentityLib.Data storage,uint64)": "7d0aba4f",
    "getRevocationProofByRoot(IdentityLib.Data storage,uint64,uint256)": "16579a36",
    "getRevocationsTreeRoot(IdentityLib.Data storage)": "765c2c61",
    "getRootProof(IdentityLib.Data storage,uint256)": "97ac5391",
    "getRootProofByRoot(IdentityLib.Data storage,uint256,uint256)": "d55da6a3",
    "getRootsByState(IdentityLib.Data storage,uint256)": "0b1a9cd3",
    "getRootsTreeRoot(IdentityLib.Data storage)": "1e75e7f3",
    "initialize(IdentityLib.Data storage,address,address,uint256)": "d3cd4e9b",
    "revokeClaim(IdentityLib.Data storage,uint64)": "8ad7195d",
    "transitState(IdentityLib.Data storage)": "2eb747d2"
  },
  "id": 16
}