{
  "abi": [
    {
      "inputs": [],
      "name": "EXPIRABLE_FLAG_YES",
      "outputs": [
        {
          "internalType": "uint32",
          "name": "",
          "type": "uint32"
        }
      ],
      "stateMutability": "view",
      "type": "function"
    },
    {
      "inputs": [],
      "name": "FLAGS_BYTE_IDX",
      "outputs": [
        {
          "internalType": "uint8",
          "name": "",
          "type": "uint8"
        }
      ],
      "stateMutability": "view",
      "type": "function"
    },
    {
      "inputs": [],
      "name": "FLAG_EXPIRATION_BIT_IDX",
      "outputs": [
        {
          "internalType": "uint8",
          "name": "",
          "type": "uint8"
        }
      ],
      "stateMutability": "view",
      "type": "function"
    },
    {
      "inputs": [],
      "name": "FLAG_UPDATABLE_BIT_IDX",
      "outputs": [
        {
          "internalType": "uint8",
          "name": "",
          "type": "uint8"
        }
      ],
      "stateMutability": "view",
      "type": "function"
    },
    {
      "inputs": [],
      "name": "ID_POSITION_INDEX",
      "outputs": [
        {
          "internalType": "uint8",
          "name": "",
          "type": "uint8"
        }
      ],
      "stateMutability": "view",
      "type": "function"
    },
    {
      "inputs": [],
      "name": "ID_POSITION_NONE",
      "outputs": [
        {
          "internalType": "uint8",
          "name": "",
          "type": "uint8"
        }
      ],
      "stateMutability": "view",
      "type": "function"
    },
    {
      "inputs": [],
      "name": "ID_POSITION_VALUE",
      "outputs": [
        {
          "internalType": "uint8",
          "name": "",
          "type": "uint8"
        }
      ],
      "stateMutability": "view",
      "type": "function"
    },
    {
      "inputs": [],
      "name": "MERKLIZED_FLAG_INDEX",
      "outputs": [
        {
          "internalType": "uint8",
          "name": "",
          "type": "uint8"
        }
      ],
      "stateMutability": "view",
      "type": "function"
    },
    {
      "inputs": [],
      "name": "MERKLIZED_FLAG_NONE",
      "outputs": [
        {
          "internalType": "uint8",
          "name": "",
          "type": "uint8"
        }
      ],
      "stateMutability": "view",
      "type": "function"
    },
    {
      "inputs": [],
      "name": "MERKLIZED_FLAG_VALUE",
      "outputs": [
        {
          "internalType": "uint8",
          "name": "",
          "type": "uint8"
        }
      ],
      "stateMutability": "view",
      "type": "function"
    },
    {
      "inputs": [],
      "name": "MERKLIZED_ROOT_POSITION_INDEX",
      "outputs": [
        {
          "internalType": "uint8",
          "name": "",
          "type": "uint8"
        }
      ],
      "stateMutability": "view",
      "type": "function"
    },
    {
      "inputs": [],
      "name": "MERKLIZED_ROOT_POSITION_NONE",
      "outputs": [
        {
          "internalType": "uint8",
          "name": "",
          "type": "uint8"
        }
      ],
      "stateMutability": "view",
      "type": "function"
    },
    {
      "inputs": [],
      "name": "MERKLIZED_ROOT_POSITION_VALUE",
      "outputs": [
        {
          "internalType": "uint8",
          "name": "",
          "type": "uint8"
        }
      ],
      "stateMutability": "view",
      "type": "function"
    },
    {
      "inputs": [],
      "name": "SUBJECT_FLAG_OTHER_IDEN_INDEX",
      "outputs": [
        {
          "internalType": "uint8",
          "name": "",
          "type": "uint8"
        }
      ],
      "stateMutability": "view",
      "type": "function"
    },
    {
      "inputs": [],
      "name": "SUBJECT_FLAG_OTHER_IDEN_VALUE",
      "outputs": [
        {
          "internalType": "uint8",
          "name": "",
          "type": "uint8"
        }
      ],
      "stateMutability": "view",
      "type": "function"
    },
    {
      "inputs": [],
      "name": "SUBJECT_FLAG_SELF",
      "outputs": [
        {
          "internalType": "uint8",
          "name": "",
          "type": "uint8"
        }
      ],
      "stateMutability": "view",
      "type": "function"
    },
    {
      "inputs": [],
      "name": "UPDATABLE_FLAG_YES",
      "outputs": [
        {
          "internalType": "uint32",
          "name": "",
          "type": "uint32"
        }
      ],
      "stateMutability": "view",
      "type": "function"
    },
    {
      "inputs": [
        {
          "components": [
            {
              "internalType": "uint256",
              "name": "schemaHash",
              "type": "uint256"
            },
            {
              "internalType": "uint8",
              "name": "idPosition",
              "type": "uint8"
            },
            {
              "internalType": "bool",
              "name": "expirable",
              "type": "bool"
            },
            {
              "internalType": "bool",
              "name": "updatable",
              "type": "bool"
            },
            {
              "internalType": "uint8",
              "name": "merklizedRootPosition",
              "type": "uint8"
            },
            {
              "internalType": "uint32",
              "name": "version",
              "type": "uint32"
            },
            {
              "internalType": "uint256",
              "name": "id",
              "type": "uint256"
            },
            {
              "internalType": "uint64",
              "name": "revocationNonce",
              "type": "uint64"
            },
            {
              "internalType": "uint64",
              "name": "expirationDate",
              "type": "uint64"
            },
            {
              "internalType": "uint256",
              "name": "merklizedRoot",
              "type": "uint256"
            },
            {
              "internalType": "uint256",
              "name": "indexDataSlotA",
              "type": "uint256"
            },
            {
              "internalType": "uint256",
              "name": "indexDataSlotB",
              "type": "uint256"
            },
            {
              "internalType": "uint256",
              "name": "valueDataSlotA",
              "type": "uint256"
            },
            {
              "internalType": "uint256",
              "name": "valueDataSlotB",
              "type": "uint256"
            }
          ],
          "internalType": "struct ClaimBuilder.ClaimData",
          "name": "c",
          "type": "tuple"
        }
      ],
      "name": "build",
      "outputs": [
        {
          "internalType": "uint256[8]",
          "name": "",
          "type": "uint256[8]"
        }
      ],
      "stateMutability": "pure",
      "type": "function"
    }
  ],
  "bytecode": {
    "object": "0x610ce761003a600b82828239805160001a60731461002d57634e487b7160e01b600052600060045260246000fd5b30600052607381538281f3fe73000000000000000000000000000000000000000030146080604052600436106101205760003560e01c80635e68819f116100ac57806387d735821161007b57806387d735821461018157806391431bc4146101b9578063a0b5f114146101b9578063e354a31b14610144578063f9cb53151461018157600080fd5b80635e68819f146101895780636ab6ed911461019157806375e8efe01461019957806387d1d83c1461012557600080fd5b8063407c1496116100f3578063407c14961461015c578063483ca881146101255780634d19f2431461016457806358c76ee9146101255780635c925a801461018157600080fd5b806304271400146101255780630cdc00af146101445780631e0ded641461014c5780633501018a14610154575b600080fd5b61012d600081565b60405160ff90911681526020015b60405180910390f35b61012d600181565b61012d604081565b61012d600481565b61012d601081565b61016c600881565b60405163ffffffff909116815260200161013b565b61012d600281565b61016c601081565b61012d602081565b6101ac6101a7366004610b85565b6101c1565b60405161013b9190610b9e565b61012d600381565b6101c9610b66565b6101d1610b66565b600080806101f36101ea6101e58835610843565b610988565b600060106109b2565b905060006102076040880160208901610bd0565b60ff16036102605760c08601351561025b5760405162461bcd60e51b815260206004820152601260248201527169642073686f756c6420626520656d70747960701b60448201526064015b60405180910390fd5b61039a565b60016102726040880160208901610bd0565b60ff16036102e1578560c001356000036102c75760405162461bcd60e51b815260206004820152601660248201527569642073686f756c64206265206e6f7420656d70747960501b6044820152606401610252565b6002919091179060c08601358460015b602002015261039a565b60026102f36040880160208901610bd0565b60ff160361035c578560c001356000036103485760405162461bcd60e51b815260206004820152601660248201527569642073686f756c64206265206e6f7420656d70747960501b6044820152606401610252565b6003919091179060c08601358460056102d7565b60405162461bcd60e51b815260206004820152601360248201527234b73b30b634b21034b2103837b9b4ba34b7b760691b6044820152606401610252565b6103aa6060870160408801610bfa565b156103bb576008919091179061043f565b6103cd61012087016101008801610c1c565b67ffffffffffffffff161561043f5760405162461bcd60e51b815260206004820152603260248201527f65787069726174696f6e446174652073686f756c64206265203020666f72206e6044820152716f6e20657870697261626c6520636c61696d60701b6064820152608401610252565b61044f6080870160608801610bfa565b1561046057601091909117906104d7565b61047060c0870160a08801610c46565b63ffffffff16156104d75760405162461bcd60e51b815260206004820152602b60248201527f76657273696f6e2073686f756c64206265203020666f72206e6f6e207570646160448201526a7461626c6520636c61696d60a81b6064820152608401610252565b60016104e960a0880160808901610bd0565b60ff160361058c576101408601351580156105075750610160860135155b80156105165750610180860135155b80156105255750610160860135155b6105715760405162461bcd60e51b815260206004820152601a60248201527f6461746120736c6f74732073686f756c6420626520656d7074790000000000006044820152606401610252565b602091909117906101208601358460025b60200201526106a8565b600261059e60a0880160808901610bd0565b60ff160361063b576101408601351580156105bc5750610160860135155b80156105cb5750610180860135155b80156105da5750610160860135155b6106265760405162461bcd60e51b815260206004820152601a60248201527f6461746120736c6f74732073686f756c6420626520656d7074790000000000006044820152606401610252565b60409190911790610120860135846006610582565b610120860135156106a85760405162461bcd60e51b815260206004820152603160248201527f6d65726b6c697a6564526f6f742073686f756c64206265203020666f72206e6f6044820152706e206d65726b6c697a656420636c61696d60781b6064820152608401610252565b6040516001600160e01b0319600884811c62ff00ff1663ff00ff009186901b9190911617601081811c91901b1760e01b1660208201526000906106ff9083906024015b6040516020818303038152906040526109c7565b9050600061078e61073d61071960c08b0160a08c01610c46565b600881811c62ff00ff1663ff00ff009290911b9190911617601081811c91901b1790565b604051602001610760919060e09190911b6001600160e01b031916815260040190565b60408051601f19818403018152908290526001600160c01b031960c089901b166020830152906028016106eb565b905061079a82826109c7565b91506107ad6107a883610c6c565b610843565b86526040860180516101408a013517905261016088013560608701526107da610100890160e08a01610c1c565b67ffffffffffffffff16866004602002018051909117905260406108066101208a016101008b01610c1c565b60808801805167ffffffffffffffff9290921690921b17905250505060c08301805161018087013517905250506101a09092013560e08301525090565b60008190506008817eff00ff00ff00ff00ff00ff00ff00ff00ff00ff00ff00ff00ff00ff00ff00ff16901b6008827fff00ff00ff00ff00ff00ff00ff00ff00ff00ff00ff00ff00ff00ff00ff00ff0016901c1790506010817dffff0000ffff0000ffff0000ffff0000ffff0000ffff0000ffff0000ffff16901b6010827fffff0000ffff0000ffff0000ffff0000ffff0000ffff0000ffff0000ffff000016901c1790506020817bffffffff00000000ffffffff00000000ffffffff00000000ffffffff16901b6020827fffffffff00000000ffffffff00000000ffffffff00000000ffffffff0000000016901c17905060408177ffffffffffffffff0000000000000000ffffffffffffffff16901b60408277ffffffffffffffff0000000000000000ffffffffffffffff1916901c179050608081901b608082901c179050919050565b60408051602080825281830190925260609160208201818036833750505060208101929092525090565b60606109bf8484846109dc565b949350505050565b60606109d38383610ae9565b90505b92915050565b6060816109ea81601f610c90565b1015610a295760405162461bcd60e51b815260206004820152600e60248201526d736c6963655f6f766572666c6f7760901b6044820152606401610252565b610a338284610c90565b84511015610a775760405162461bcd60e51b8152602060048201526011602482015270736c6963655f6f75744f66426f756e647360781b6044820152606401610252565b606082158015610a965760405191506000825260208201604052610ae0565b6040519150601f8416801560200281840101858101878315602002848b0101015b81831015610acf578051835260209283019201610ab7565b5050858452601f01601f1916604052505b50949350505050565b6060806040519050835180825260208201818101602087015b81831015610b1a578051835260209283019201610b02565b50855184518101855292509050808201602086015b81831015610b47578051835260209283019201610b2f565b508651929092011591909101601f01601f191660405250905092915050565b6040518061010001604052806008906020820280368337509192915050565b60006101c08284031215610b9857600080fd5b50919050565b6101008101818360005b6008811015610bc7578151835260209283019290910190600101610ba8565b50505092915050565b600060208284031215610be257600080fd5b813560ff81168114610bf357600080fd5b9392505050565b600060208284031215610c0c57600080fd5b81358015158114610bf357600080fd5b600060208284031215610c2e57600080fd5b813567ffffffffffffffff81168114610bf357600080fd5b600060208284031215610c5857600080fd5b813563ffffffff81168114610bf357600080fd5b80516020808301519190811015610b985760001960209190910360031b1b16919050565b808201808211156109d657634e487b7160e01b600052601160045260246000fdfea264697066735822122034af588de08d48e2c5ba5b3e86a011a379a200ccdafffafeea37a630f9c1569264736f6c63430008170033",
    "linkReferences": {}
  },
  "methodIdentifiers": {
    "EXPIRABLE_FLAG_YES()": "4d19f243",
    "FLAGS_BYTE_IDX()": "407c1496",
    "FLAG_EXPIRATION_BIT_IDX()": "a0b5f114",
    "FLAG_UPDATABLE_BIT_IDX()": "3501018a",
    "ID_POSITION_INDEX()": "e354a31b",
    "ID_POSITION_NONE()": "04271400",
    "ID_POSITION_VALUE()": "f9cb5315",
    "MERKLIZED_FLAG_INDEX()": "6ab6ed91",
    "MERKLIZED_FLAG_NONE()": "87d1d83c",
    "MERKLIZED_FLAG_VALUE()": "1e0ded64",
    "MERKLIZED_ROOT_POSITION_INDEX()": "0cdc00af",
    "MERKLIZED_ROOT_POSITION_NONE()": "483ca881",
    "MERKLIZED_ROOT_POSITION_VALUE()": "5c925a80",
    "SUBJECT_FLAG_OTHER_IDEN_INDEX()": "87d73582",
    "SUBJECT_FLAG_OTHER_IDEN_VALUE()": "91431bc4",
    "SUBJECT_FLAG_SELF()": "58c76ee9",
    "UPDATABLE_FLAG_YES()": "5e68819f",
    "build(ClaimBuilder.ClaimData)": "75e8efe0"
  },
  "id": 13
}