{
  "abi": [
    {
      "inputs": [
        {
          "internalType": "contract IEntryPoint",
          "name": "anEntryPoint",
          "type": "address"
        }
      ],
      "stateMutability": "nonpayable",
      "type": "constructor"
    },
    {
      "inputs": [],
      "name": "ArrayLengthMismatch",
      "type": "error"
    },
    {
      "inputs": [],
      "name": "InvalidInitialization",
      "type": "error"
    },
    {
      "inputs": [
        {
          "internalType": "address",
          "name": "owner",
          "type": "address"
        }
      ],
      "name": "InvalidOwner",
      "type": "error"
    },
    {
      "inputs": [
        {
          "internalType": "address",
          "name": "caller",
          "type": "address"
        }
      ],
      "name": "NotAuthorized",
      "type": "error"
    },
    {
      "inputs": [],
      "name": "NotInitializing",
      "type": "error"
    },
    {
      "anonymous": false,
      "inputs": [
        {
          "indexed": false,
          "internalType": "address",
          "name": "previousAdmin",
          "type": "address"
        },
        {
          "indexed": false,
          "internalType": "address",
          "name": "newAdmin",
          "type": "address"
        }
      ],
      "name": "AdminChanged",
      "type": "event"
    },
    {
      "anonymous": false,
      "inputs": [
        {
          "indexed": true,
          "internalType": "address",
          "name": "beacon",
          "type": "address"
        }
      ],
      "name": "BeaconUpgraded",
      "type": "event"
    },
    {
      "anonymous": false,
      "inputs": [
        {
          "indexed": true,
          "internalType": "contract IEntryPoint",
          "name": "entryPoint",
          "type": "address"
        },
        {
          "indexed": true,
          "internalType": "address",
          "name": "owner",
          "type": "address"
        }
      ],
      "name": "BlockSipAccountInitialized",
      "type": "event"
    },
    {
      "anonymous": false,
      "inputs": [
        {
          "indexed": false,
          "internalType": "uint64",
          "name": "version",
          "type": "uint64"
        }
      ],
      "name": "Initialized",
      "type": "event"
    },
    {
      "anonymous": false,
      "inputs": [
        {
          "indexed": true,
          "internalType": "address",
          "name": "previousOwner",
          "type": "address"
        },
        {
          "indexed": true,
          "internalType": "address",
          "name": "newOwner",
          "type": "address"
        }
      ],
      "name": "OwnershipTransferred",
      "type": "event"
    },
    {
      "anonymous": false,
      "inputs": [
        {
          "indexed": true,
          "internalType": "address",
          "name": "implementation",
          "type": "address"
        }
      ],
      "name": "Upgraded",
      "type": "event"
    },
    {
      "inputs": [],
      "name": "addDeposit",
      "outputs": [],
      "stateMutability": "payable",
      "type": "function"
    },
    {
      "inputs": [],
      "name": "domainSeparator",
      "outputs": [
        {
          "internalType": "bytes32",
          "name": "",
          "type": "bytes32"
        }
      ],
      "stateMutability": "view",
      "type": "function"
    },
    {
      "inputs": [
        {
          "internalType": "bytes",
          "name": "message",
          "type": "bytes"
        }
      ],
      "name": "encodeMessageData",
      "outputs": [
        {
          "internalType": "bytes",
          "name": "",
          "type": "bytes"
        }
      ],
      "stateMutability": "view",
      "type": "function"
    },
    {
      "inputs": [],
      "name": "entryPoint",
      "outputs": [
        {
          "internalType": "contract IEntryPoint",
          "name": "",
          "type": "address"
        }
      ],
      "stateMutability": "view",
      "type": "function"
    },
    {
      "inputs": [
        {
          "internalType": "address",
          "name": "dest",
          "type": "address"
        },
        {
          "internalType": "uint256",
          "name": "value",
          "type": "uint256"
        },
        {
          "internalType": "bytes",
          "name": "func",
          "type": "bytes"
        }
      ],
      "name": "execute",
      "outputs": [],
      "stateMutability": "nonpayable",
      "type": "function"
    },
    {
      "inputs": [
        {
          "internalType": "address[]",
          "name": "dest",
          "type": "address[]"
        },
        {
          "internalType": "bytes[]",
          "name": "func",
          "type": "bytes[]"
        }
      ],
      "name": "executeBatch",
      "outputs": [],
      "stateMutability": "nonpayable",
      "type": "function"
    },
    {
      "inputs": [
        {
          "internalType": "address[]",
          "name": "dest",
          "type": "address[]"
        },
        {
          "internalType": "uint256[]",
          "name": "value",
          "type": "uint256[]"
        },
        {
          "internalType": "bytes[]",
          "name": "func",
          "type": "bytes[]"
        }
      ],
      "name": "executeBatch",
      "outputs": [],
      "stateMutability": "nonpayable",
      "type": "function"
    },
    {
      "inputs": [],
      "name": "getDeposit",
      "outputs": [
        {
          "internalType": "uint256",
          "name": "",
          "type": "uint256"
        }
      ],
      "stateMutability": "view",
      "type": "function"
    },
    {
      "inputs": [
        {
          "internalType": "bytes",
          "name": "message",
          "type": "bytes"
        }
      ],
      "name": "getMessageHash",
      "outputs": [
        {
          "internalType": "bytes32",
          "name": "",
          "type": "bytes32"
        }
      ],
      "stateMutability": "view",
      "type": "function"
    },
    {
      "inputs": [],
      "name": "getNonce",
      "outputs": [
        {
          "internalType": "uint256",
          "name": "",
          "type": "uint256"
        }
      ],
      "stateMutability": "view",
      "type": "function"
    },
    {
      "inputs": [
        {
          "internalType": "address",
          "name": "anOwner",
          "type": "address"
        }
      ],
      "name": "initialize",
      "outputs": [],
      "stateMutability": "nonpayable",
      "type": "function"
    },
    {
      "inputs": [
        {
          "internalType": "bytes32",
          "name": "digest",
          "type": "bytes32"
        },
        {
          "internalType": "bytes",
          "name": "signature",
          "type": "bytes"
        }
      ],
      "name": "isValidSignature",
      "outputs": [
        {
          "internalType": "bytes4",
          "name": "",
          "type": "bytes4"
        }
      ],
      "stateMutability": "view",
      "type": "function"
    },
    {
      "inputs": [
        {
          "internalType": "address",
          "name": "",
          "type": "address"
        },
        {
          "internalType": "address",
          "name": "",
          "type": "address"
        },
        {
          "internalType": "uint256[]",
          "name": "",
          "type": "uint256[]"
        },
        {
          "internalType": "uint256[]",
          "name": "",
          "type": "uint256[]"
        },
        {
          "internalType": "bytes",
          "name": "",
          "type": "bytes"
        }
      ],
      "name": "onERC1155BatchReceived",
      "outputs": [
        {
          "internalType": "bytes4",
          "name": "",
          "type": "bytes4"
        }
      ],
      "stateMutability": "pure",
      "type": "function"
    },
    {
      "inputs": [
        {
          "internalType": "address",
          "name": "",
          "type": "address"
        },
        {
          "internalType": "address",
          "name": "",
          "type": "address"
        },
        {
          "internalType": "uint256",
          "name": "",
          "type": "uint256"
        },
        {
          "internalType": "uint256",
          "name": "",
          "type": "uint256"
        },
        {
          "internalType": "bytes",
          "name": "",
          "type": "bytes"
        }
      ],
      "name": "onERC1155Received",
      "outputs": [
        {
          "internalType": "bytes4",
          "name": "",
          "type": "bytes4"
        }
      ],
      "stateMutability": "pure",
      "type": "function"
    },
    {
      "inputs": [
        {
          "internalType": "address",
          "name": "",
          "type": "address"
        },
        {
          "internalType": "address",
          "name": "",
          "type": "address"
        },
        {
          "internalType": "uint256",
          "name": "",
          "type": "uint256"
        },
        {
          "internalType": "bytes",
          "name": "",
          "type": "bytes"
        }
      ],
      "name": "onERC721Received",
      "outputs": [
        {
          "internalType": "bytes4",
          "name": "",
          "type": "bytes4"
        }
      ],
      "stateMutability": "pure",
      "type": "function"
    },
    {
      "inputs": [],
      "name": "owner",
      "outputs": [
        {
          "internalType": "address",
          "name": "",
          "type": "address"
        }
      ],
      "stateMutability": "view",
      "type": "function"
    },
    {
      "inputs": [
        {
          "internalType": "bytes4",
          "name": "interfaceId",
          "type": "bytes4"
        }
      ],
      "name": "supportsInterface",
      "outputs": [
        {
          "internalType": "bool",
          "name": "",
          "type": "bool"
        }
      ],
      "stateMutability": "view",
      "type": "function"
    },
    {
      "inputs": [
        {
          "internalType": "address",
          "name": "",
          "type": "address"
        },
        {
          "internalType": "address",
          "name": "",
          "type": "address"
        },
        {
          "internalType": "address",
          "name": "",
          "type": "address"
        },
        {
          "internalType": "uint256",
          "name": "",
          "type": "uint256"
        },
        {
          "internalType": "bytes",
          "name": "",
          "type": "bytes"
        },
        {
          "internalType": "bytes",
          "name": "",
          "type": "bytes"
        }
      ],
      "name": "tokensReceived",
      "outputs": [],
      "stateMutability": "pure",
      "type": "function"
    },
    {
      "inputs": [
        {
          "internalType": "address",
          "name": "newOwner",
          "type": "address"
        }
      ],
      "name": "transferOwnership",
      "outputs": [],
      "stateMutability": "nonpayable",
      "type": "function"
    },
    {
      "inputs": [
        {
          "internalType": "address",
          "name": "newImplementation",
          "type": "address"
        }
      ],
      "name": "upgradeTo",
      "outputs": [],
      "stateMutability": "nonpayable",
      "type": "function"
    },
    {
      "inputs": [
        {
          "internalType": "address",
          "name": "newImplementation",
          "type": "address"
        },
        {
          "internalType": "bytes",
          "name": "data",
          "type": "bytes"
        }
      ],
      "name": "upgradeToAndCall",
      "outputs": [],
      "stateMutability": "payable",
      "type": "function"
    },
    {
      "inputs": [
        {
          "components": [
            {
              "internalType": "address",
              "name": "sender",
              "type": "address"
            },
            {
              "internalType": "uint256",
              "name": "nonce",
              "type": "uint256"
            },
            {
              "internalType": "bytes",
              "name": "initCode",
              "type": "bytes"
            },
            {
              "internalType": "bytes",
              "name": "callData",
              "type": "bytes"
            },
            {
              "internalType": "uint256",
              "name": "callGasLimit",
              "type": "uint256"
            },
            {
              "internalType": "uint256",
              "name": "verificationGasLimit",
              "type": "uint256"
            },
            {
              "internalType": "uint256",
              "name": "preVerificationGas",
              "type": "uint256"
            },
            {
              "internalType": "uint256",
              "name": "maxFeePerGas",
              "type": "uint256"
            },
            {
              "internalType": "uint256",
              "name": "maxPriorityFeePerGas",
              "type": "uint256"
            },
            {
              "internalType": "bytes",
              "name": "paymasterAndData",
              "type": "bytes"
            },
            {
              "internalType": "bytes",
              "name": "signature",
              "type": "bytes"
            }
          ],
          "internalType": "struct UserOperation",
          "name": "userOp",
          "type": "tuple"
        },
        {
          "internalType": "bytes32",
          "name": "userOpHash",
          "type": "bytes32"
        },
        {
          "internalType": "uint256",
          "name": "missingAccountFunds",
          "type": "uint256"
        }
      ],
      "name": "validateUserOp",
      "outputs": [
        {
          "internalType": "uint256",
          "name": "validationData",
          "type": "uint256"
        }
      ],
      "stateMutability": "nonpayable",
      "type": "function"
    },
    {
      "inputs": [
        {
          "internalType": "address payable",
          "name": "withdrawAddress",
          "type": "address"
        },
        {
          "internalType": "uint256",
          "name": "amount",
          "type": "uint256"
        }
      ],
      "name": "withdrawDepositTo",
      "outputs": [],
      "stateMutability": "nonpayable",
      "type": "function"
    },
    {
      "stateMutability": "payable",
      "type": "receive"
    }
  ],
  "bytecode": {
    "object": "0x60c06040523480156200001157600080fd5b506040516200206b3803806200206b833981016040819052620000349162000118565b7f08717d4c6754e69ab3ce1f1623aae7cdfb990129dc7b571085034368f57daa006080526001600160a01b03811660a0526200006f62000076565b506200014a565b60006200008260805190565b805490915068010000000000000000900460ff1615620000b55760405163f92ee8a960e01b815260040160405180910390fd5b80546001600160401b0390811614620001155780546001600160401b0319166001600160401b0390811782556040519081527fc7f505b2f371ae2175ee4913f4499e1f2633a7b5936321eed1cdaeb6115181d29060200160405180910390a15b50565b6000602082840312156200012b57600080fd5b81516001600160a01b03811681146200014357600080fd5b9392505050565b60805160a051611eca620001a16000396000818161036201528181610719015281816107a10152818161097c01528181610b2101528181610ce401528181610f140152611175015260006109ef0152611eca6000f3fe6080604052600436106101435760003560e01c80634f1ef286116100b6578063c399ec881161006f578063c399ec88146103d5578063c4d66de8146103ea578063d087d2881461040a578063f23a6e611461041f578063f2fde38b1461044c578063f698da251461046c57600080fd5b80634f1ef286146102e65780638da5cb5b146102f9578063a786cac914610326578063b0d691fe14610353578063b61d27f614610386578063bc197c81146103a657600080fd5b806318dfb3c71161010857806318dfb3c71461023e5780633659cfe61461025e5780633a871cdd1461027e57806347e1da2a1461029e5780634a58db19146102be5780634d44560d146102c657600080fd5b806223de291461014f57806301ffc9a7146101765780630a1028c4146101ab578063150b7a02146101d95780631626ba7e1461021e57600080fd5b3661014a57005b600080fd5b34801561015b57600080fd5b5061017461016a36600461171a565b5050505050505050565b005b34801561018257600080fd5b506101966101913660046117ca565b610481565b60405190151581526020015b60405180910390f35b3480156101b757600080fd5b506101cb6101c6366004611896565b6104d3565b6040519081526020016101a2565b3480156101e557600080fd5b506102056101f43660046118d2565b630a85bd0160e11b95945050505050565b6040516001600160e01b031990911681526020016101a2565b34801561022a57600080fd5b50610205610239366004611944565b6104ec565b34801561024a57600080fd5b506101746102593660046119ce565b61055e565b34801561026a57600080fd5b50610174610279366004611a39565b61062c565b34801561028a57600080fd5b506101cb610299366004611a56565b610653565b3480156102aa57600080fd5b506101746102b9366004611aa9565b610679565b610174610717565b3480156102d257600080fd5b506101746102e1366004611b42565b610797565b6101746102f4366004611b6e565b610820565b34801561030557600080fd5b5061030e610839565b6040516001600160a01b0390911681526020016101a2565b34801561033257600080fd5b50610346610341366004611896565b61086c565b6040516101a29190611bf7565b34801561035f57600080fd5b507f000000000000000000000000000000000000000000000000000000000000000061030e565b34801561039257600080fd5b506101746103a1366004611c0a565b61090d565b3480156103b257600080fd5b506102056103c1366004611c59565b63bc197c8160e01b98975050505050505050565b3480156103e157600080fd5b506101cb61095c565b3480156103f657600080fd5b50610174610405366004611a39565b6109ed565b34801561041657600080fd5b506101cb610afa565b34801561042b57600080fd5b5061020561043a366004611cf6565b63f23a6e6160e01b9695505050505050565b34801561045857600080fd5b50610174610467366004611a39565b610b50565b34801561047857600080fd5b506101cb610bad565b60006001600160e01b03198216630a85bd0160e11b14806104b257506001600160e01b03198216630271189760e51b145b806104cd57506001600160e01b031982166301ffc9a760e01b145b92915050565b60006104de8261086c565b805190602001209050919050565b6000806105198460405160200161050591815260200190565b60405160208183030381529060405261086c565b8051602082012090915061053561052e610839565b8286610c78565b1561054c5750630b135d3f60e11b91506104cd9050565b506001600160e01b0319949350505050565b610566610cd9565b8281146105865760405163512509d360e11b815260040160405180910390fd5b8260005b818110156106245761061c8686838181106105a7576105a7611d5f565b90506020020160208101906105bc9190611a39565b60008686858181106105d0576105d0611d5f565b90506020028101906105e29190611d75565b8080601f016020809104026020016040519081016040528093929190818152602001838380828437600092019190915250610d4d92505050565b60010161058a565b505050505050565b61063581610dbd565b61065081604051806020016040528060008152506000610dc5565b50565b600061065d610f09565b6106678484610f81565b9050610672826110a6565b9392505050565b610681610cd9565b84811415806106905750848314155b156106ae5760405163512509d360e11b815260040160405180910390fd5b8460005b8181101561016a5761070f8888838181106106cf576106cf611d5f565b90506020020160208101906106e49190611a39565b8787848181106106f6576106f6611d5f565b905060200201358686858181106105d0576105d0611d5f565b6001016106b2565b7f000000000000000000000000000000000000000000000000000000000000000060405163b760faf960e01b81523060048201526001600160a01b03919091169063b760faf99034906024016000604051808303818588803b15801561077c57600080fd5b505af1158015610790573d6000803e3d6000fd5b5050505050565b61079f6110f3565b7f000000000000000000000000000000000000000000000000000000000000000060405163040b850f60e31b81526001600160a01b03848116600483015260248201849052919091169063205c287890604401600060405180830381600087803b15801561080c57600080fd5b505af1158015610624573d6000803e3d6000fd5b61082982610dbd565b61083582826001610dc5565b5050565b60007f6d3c6fd2d1bfd632ad96cb0e03356502f1067c65b49e42597bc9b5d32ac249005b546001600160a01b0316919050565b606060007f390cc2698b2a3b32900ea873f542779f4271c91b82887c1aee638fd41819cc5f60001b83805190602001206040516020016108b6929190918252602082015260400190565b6040516020818303038152906040528051906020012090506108d6610bad565b60405161190160f01b6020820152602281019190915260428101829052606201604051602081830303815290604052915050919050565b610915610cd9565b610956848484848080601f016020809104026020016040519081016040528093929190818152602001838380828437600092019190915250610d4d92505050565b50505050565b6040516370a0823160e01b81523060048201526000906001600160a01b037f000000000000000000000000000000000000000000000000000000000000000016906370a08231906024015b602060405180830381865afa1580156109c4573d6000803e3d6000fd5b505050506040513d601f19601f820116820180604052508101906109e89190611dbb565b905090565b7f00000000000000000000000000000000000000000000000000000000000000008054600160401b810460ff1615906001600160401b0316600081158015610a325750825b90506000826001600160401b03166001148015610a4e5750303b155b905081158015610a5c575080155b15610a7a5760405163f92ee8a960e01b815260040160405180910390fd5b845467ffffffffffffffff191660011785558315610aa457845460ff60401b1916600160401b1785555b610aad86611106565b831561062457845460ff60401b19168555604051600181527fc7f505b2f371ae2175ee4913f4499e1f2633a7b5936321eed1cdaeb6115181d29060200160405180910390a1505050505050565b604051631aab3f0d60e11b8152306004820152600060248201819052906001600160a01b037f000000000000000000000000000000000000000000000000000000000000000016906335567e1a906044016109a7565b610b586110f3565b6001600160a01b0381161580610b7657506001600160a01b03811630145b15610ba45760405163b20f76e360e01b81526001600160a01b03821660048201526024015b60405180910390fd5b610650816111f5565b60007f8b73c3c69bb8fe3d512ecc4cf759cc79239f7b179b0ffacaa9a75d522b39400f60001b604051602001610c06906020808252600f908201526e109b1bd8dad4da5c1058d8dbdd5b9d608a1b604082015260600190565b604051602081830303815290604052604051602001610c3a906020808252600190820152603160f81b604082015260600190565b60408051601f1981840301815290829052610c5d93929146903090602001611dd4565b60405160208183030381529060405280519060200120905090565b6000806000610c87858561129f565b90925090506000816003811115610ca057610ca0611e22565b148015610cbe5750856001600160a01b0316826001600160a01b0316145b80610ccf5750610ccf8686866112e4565b9695505050505050565b336001600160a01b037f00000000000000000000000000000000000000000000000000000000000000001614801590610d2b5750610d15610839565b6001600160a01b0316336001600160a01b031614155b15610d4b57604051634a0bfec160e01b8152336004820152602401610b9b565b565b600080846001600160a01b03168484604051610d699190611e38565b60006040518083038185875af1925050503d8060008114610da6576040519150601f19603f3d011682016040523d82523d6000602084013e610dab565b606091505b50915091508161079057805160208201fd5b6106506110f3565b6000610dcf6113d0565b9050610dda846113f8565b600083511180610de75750815b15610df857610df6848461149d565b505b7f4910fdfa16fed3260ed0e7147f7cc6da11a60208b5b9406d12a635614ffd9143805460ff1661079057805460ff191660011781556040516001600160a01b0383166024820152610e7790869060440160408051601f198184030181529190526020810180516001600160e01b0316631b2ce7f360e11b17905261149d565b50805460ff19168155610e886113d0565b6001600160a01b0316826001600160a01b031614610f005760405162461bcd60e51b815260206004820152602f60248201527f45524331393637557067726164653a207570677261646520627265616b73206660448201526e75727468657220757067726164657360881b6064820152608401610b9b565b610790856114c2565b336001600160a01b037f00000000000000000000000000000000000000000000000000000000000000001614610d4b5760405162461bcd60e51b815260206004820152601c60248201527f6163636f756e743a206e6f742066726f6d20456e747279506f696e74000000006044820152606401610b9b565b600080610f8c610839565b90506000610fe7846040517f19457468657265756d205369676e6564204d6573736167653a0a3332000000006020820152603c8101829052600090605c01604051602081830303815290604052805190602001209050919050565b90506000610ff9610140870187611d75565b8080601f016020809104026020016040519081016040528093929190818152602001838380828437600092018290525093945083925061103d91508590508461129f565b9092509050600081600381111561105657611056611e22565b1480156110745750846001600160a01b0316826001600160a01b0316145b8061108557506110858588856112e4565b15611098576000955050505050506104cd565b506001979650505050505050565b801561065057604051600090339060001990849084818181858888f193505050503d8060008114610790576040519150601f19603f3d011682016040523d82523d6000602084013e610790565b333014801590610d2b5750610d15610839565b6001600160a01b0381166111305760405163b20f76e360e01b815260006004820152602401610b9b565b807f6d3c6fd2d1bfd632ad96cb0e03356502f1067c65b49e42597bc9b5d32ac2490080546001600160a01b0319166001600160a01b03928316179055604051828216917f000000000000000000000000000000000000000000000000000000000000000016907f74f829cd36dc778335badbb9f7d20640f2142b8016ed8061b215580f2f1d0df790600090a36040516001600160a01b038216906000907f8be0079c531659141344cd1fd0a4f28419497f9722a3daafe3b4186f6b6457e0908290a350565b7f6d3c6fd2d1bfd632ad96cb0e03356502f1067c65b49e42597bc9b5d32ac2490080546001600160a01b039081169083168190036112515760405163b20f76e360e01b81526001600160a01b0384166004820152602401610b9b565b81546001600160a01b0319166001600160a01b038481169182178455604051908316907f8be0079c531659141344cd1fd0a4f28419497f9722a3daafe3b4186f6b6457e090600090a3505050565b60008082516041036112d55760208301516040840151606085015160001a6112c987828585611502565b945094505050506112dd565b506000905060025b9250929050565b6000806000856001600160a01b0316631626ba7e60e01b868660405160240161130e929190611e54565b60408051601f198184030181529181526020820180516001600160e01b03166001600160e01b031990941693909317909252905161134c9190611e38565b600060405180830381855afa9150503d8060008114611387576040519150601f19603f3d011682016040523d82523d6000602084013e61138c565b606091505b50915091508180156113a057506020815110155b8015610ccf57508051630b135d3f60e11b906113c59083016020908101908401611dbb565b149695505050505050565b60007f360894a13ba1a3210667c828492db98dca3e2076cc3735a920a3ca505d382bbc61085d565b803b61145c5760405162461bcd60e51b815260206004820152602d60248201527f455243313936373a206e657720696d706c656d656e746174696f6e206973206e60448201526c1bdd08184818dbdb9d1c9858dd609a1b6064820152608401610b9b565b7f360894a13ba1a3210667c828492db98dca3e2076cc3735a920a3ca505d382bbc80546001600160a01b0319166001600160a01b0392909216919091179055565b60606106728383604051806060016040528060278152602001611e6e602791396115c6565b6114cb816113f8565b6040516001600160a01b038216907fbc7cd75a20ee27fd9adebab32041f755214dbc6bffa90cc0225b39da2e5c2d3b90600090a250565b6000807f7fffffffffffffffffffffffffffffff5d576e7357a4501ddfe92f46681b20a083111561153957506000905060036115bd565b6040805160008082526020820180845289905260ff881692820192909252606081018690526080810185905260019060a0016020604051602081039080840390855afa15801561158d573d6000803e3d6000fd5b5050604051601f1901519150506001600160a01b0381166115b6576000600192509250506115bd565b9150600090505b94509492505050565b6060833b6116255760405162461bcd60e51b815260206004820152602660248201527f416464726573733a2064656c65676174652063616c6c20746f206e6f6e2d636f6044820152651b9d1c9858dd60d21b6064820152608401610b9b565b600080856001600160a01b0316856040516116409190611e38565b600060405180830381855af49150503d806000811461167b576040519150601f19603f3d011682016040523d82523d6000602084013e611680565b606091505b5091509150610ccf8282866060831561169a575081610672565b8251156116aa5782518084602001fd5b8160405162461bcd60e51b8152600401610b9b9190611bf7565b6001600160a01b038116811461065057600080fd5b60008083601f8401126116eb57600080fd5b5081356001600160401b0381111561170257600080fd5b6020830191508360208285010111156112dd57600080fd5b60008060008060008060008060c0898b03121561173657600080fd5b8835611741816116c4565b97506020890135611751816116c4565b96506040890135611761816116c4565b95506060890135945060808901356001600160401b038082111561178457600080fd5b6117908c838d016116d9565b909650945060a08b01359150808211156117a957600080fd5b506117b68b828c016116d9565b999c989b5096995094979396929594505050565b6000602082840312156117dc57600080fd5b81356001600160e01b03198116811461067257600080fd5b634e487b7160e01b600052604160045260246000fd5b600082601f83011261181b57600080fd5b81356001600160401b0380821115611835576118356117f4565b604051601f8301601f19908116603f0116810190828211818310171561185d5761185d6117f4565b8160405283815286602085880101111561187657600080fd5b836020870160208301376000602085830101528094505050505092915050565b6000602082840312156118a857600080fd5b81356001600160401b038111156118be57600080fd5b6118ca8482850161180a565b949350505050565b6000806000806000608086880312156118ea57600080fd5b85356118f5816116c4565b94506020860135611905816116c4565b93506040860135925060608601356001600160401b0381111561192757600080fd5b611933888289016116d9565b969995985093965092949392505050565b6000806040838503121561195757600080fd5b8235915060208301356001600160401b0381111561197457600080fd5b6119808582860161180a565b9150509250929050565b60008083601f84011261199c57600080fd5b5081356001600160401b038111156119b357600080fd5b6020830191508360208260051b85010111156112dd57600080fd5b600080600080604085870312156119e457600080fd5b84356001600160401b03808211156119fb57600080fd5b611a078883890161198a565b90965094506020870135915080821115611a2057600080fd5b50611a2d8782880161198a565b95989497509550505050565b600060208284031215611a4b57600080fd5b8135610672816116c4565b600080600060608486031215611a6b57600080fd5b83356001600160401b03811115611a8157600080fd5b84016101608187031215611a9457600080fd5b95602085013595506040909401359392505050565b60008060008060008060608789031215611ac257600080fd5b86356001600160401b0380821115611ad957600080fd5b611ae58a838b0161198a565b90985096506020890135915080821115611afe57600080fd5b611b0a8a838b0161198a565b90965094506040890135915080821115611b2357600080fd5b50611b3089828a0161198a565b979a9699509497509295939492505050565b60008060408385031215611b5557600080fd5b8235611b60816116c4565b946020939093013593505050565b60008060408385031215611b8157600080fd5b8235611b8c816116c4565b915060208301356001600160401b0381111561197457600080fd5b60005b83811015611bc2578181015183820152602001611baa565b50506000910152565b60008151808452611be3816020860160208601611ba7565b601f01601f19169290920160200192915050565b6020815260006106726020830184611bcb565b60008060008060608587031215611c2057600080fd5b8435611c2b816116c4565b93506020850135925060408501356001600160401b03811115611c4d57600080fd5b611a2d878288016116d9565b60008060008060008060008060a0898b031215611c7557600080fd5b8835611c80816116c4565b97506020890135611c90816116c4565b965060408901356001600160401b0380821115611cac57600080fd5b611cb88c838d0161198a565b909850965060608b0135915080821115611cd157600080fd5b611cdd8c838d0161198a565b909650945060808b01359150808211156117a957600080fd5b60008060008060008060a08789031215611d0f57600080fd5b8635611d1a816116c4565b95506020870135611d2a816116c4565b9450604087013593506060870135925060808701356001600160401b03811115611d5357600080fd5b611b3089828a016116d9565b634e487b7160e01b600052603260045260246000fd5b6000808335601e19843603018112611d8c57600080fd5b8301803591506001600160401b03821115611da657600080fd5b6020019150368190038213156112dd57600080fd5b600060208284031215611dcd57600080fd5b5051919050565b85815260a060208201526000611ded60a0830187611bcb565b8281036040840152611dff8187611bcb565b606084019590955250506001600160a01b03919091166080909101529392505050565b634e487b7160e01b600052602160045260246000fd5b60008251611e4a818460208701611ba7565b9190910192915050565b8281526040602082015260006118ca6040830184611bcb56fe416464726573733a206c6f772d6c6576656c2064656c65676174652063616c6c206661696c6564a2646970667358221220a3f089d7edc69216a4efdb966a4bb1b715308c676679f401d5714970bd6527d164736f6c63430008170033",
    "linkReferences": {}
  },
  "methodIdentifiers": {
    "addDeposit()": "4a58db19",
    "domainSeparator()": "f698da25",
    "encodeMessageData(bytes)": "a786cac9",
    "entryPoint()": "b0d691fe",
    "execute(address,uint256,bytes)": "b61d27f6",
    "executeBatch(address[],bytes[])": "18dfb3c7",
    "executeBatch(address[],uint256[],bytes[])": "47e1da2a",
    "getDeposit()": "c399ec88",
    "getMessageHash(bytes)": "0a1028c4",
    "getNonce()": "d087d288",
    "initialize(address)": "c4d66de8",
    "isValidSignature(bytes32,bytes)": "1626ba7e",
    "onERC1155BatchReceived(address,address,uint256[],uint256[],bytes)": "bc197c81",
    "onERC1155Received(address,address,uint256,uint256,bytes)": "f23a6e61",
    "onERC721Received(address,address,uint256,bytes)": "150b7a02",
    "owner()": "8da5cb5b",
    "supportsInterface(bytes4)": "01ffc9a7",
    "tokensReceived(address,address,address,uint256,bytes,bytes)": "0023de29",
    "transferOwnership(address)": "f2fde38b",
    "upgradeTo(address)": "3659cfe6",
    "upgradeToAndCall(address,bytes)": "4f1ef286",
    "validateUserOp((address,uint256,bytes,bytes,uint256,uint256,uint256,uint256,uint256,bytes,bytes),bytes32,uint256)": "3a871cdd",
    "withdrawDepositTo(address,uint256)": "4d44560d"
  },
  "id": 57
}