{
  "abi": [
    {
      "inputs": [
        {
          "internalType": "contract IEntryPoint",
          "name": "_entryPoint",
          "type": "address"
        }
      ],
      "stateMutability": "nonpayable",
      "type": "constructor"
    },
    {
      "inputs": [],
      "name": "accountImplementation",
      "outputs": [
        {
          "internalType": "contract LightAccount",
          "name": "",
          "type": "address"
        }
      ],
      "stateMutability": "view",
      "type": "function"
    },
    {
      "inputs": [
        {
          "internalType": "address",
          "name": "owner",
          "type": "address"
        },
        {
          "internalType": "uint256",
          "name": "salt",
          "type": "uint256"
        }
      ],
      "name": "createAccount",
      "outputs": [
        {
          "internalType": "contract LightAccount",
          "name": "ret",
          "type": "address"
        }
      ],
      "stateMutability": "nonpayable",
      "type": "function"
    },
    {
      "inputs": [
        {
          "internalType": "address",
          "name": "owner",
          "type": "address"
        },
        {
          "internalType": "uint256",
          "name": "salt",
          "type": "uint256"
        }
      ],
      "name": "getAddress",
      "outputs": [
        {
          "internalType": "address",
          "name": "",
          "type": "address"
        }
      ],
      "stateMutability": "view",
      "type": "function"
    }
  ],
  "bytecode": {
    "object": "0x60a060405234801561001057600080fd5b50604051612c9d380380612c9d83398101604081905261002f91610088565b8060405161003c9061007b565b6001600160a01b039091168152602001604051809103906000f080158015610068573d6000803e3d6000fd5b506001600160a01b0316608052506100b8565b61207080610c2d83390190565b60006020828403121561009a57600080fd5b81516001600160a01b03811681146100b157600080fd5b9392505050565b608051610b4e6100df60003960008181604b0152818160ed01526101ba0152610b4e6000f3fe608060405234801561001057600080fd5b50600436106100415760003560e01c806311464fbe146100465780635fbfb9cf146100895780638cb84e181461009c575b600080fd5b61006d7f000000000000000000000000000000000000000000000000000000000000000081565b6040516001600160a01b03909116815260200160405180910390f35b61006d6100973660046102b2565b6100af565b61006d6100aa3660046102b2565b61017b565b6000806100bc848461017b565b90506001600160a01b0381163b80156100d757509050610175565b6040516001600160a01b038616602482015284907f00000000000000000000000000000000000000000000000000000000000000009060440160408051601f198184030181529181526020820180516001600160e01b031663189acdbd60e31b17905251610144906102a5565b61014f92919061031a565b8190604051809103906000f590508015801561016f573d6000803e3d6000fd5b50925050505b92915050565b600061029e8260001b60405180602001610194906102a5565b601f1982820381018352601f9091011660408190526001600160a01b03871660248201527f00000000000000000000000000000000000000000000000000000000000000009060440160408051601f19818403018152918152602080830180516001600160e01b031663189acdbd60e31b17905290516102169392910161031a565b60408051601f1981840301815290829052610234929160200161035c565b60408051601f1981840301815282825280516020918201206001600160f81b0319848301526bffffffffffffffffffffffff193060601b16602185015260358401859052605580850182905283518086039091018152607590940190925282519201919091206000905b9392505050565b61078d8061038c83390190565b600080604083850312156102c557600080fd5b82356001600160a01b03811681146102dc57600080fd5b946020939093013593505050565b60005b838110156103055781810151838201526020016102ed565b83811115610314576000848401525b50505050565b60018060a01b038316815260406020820152600082518060408401526103478160608501602087016102ea565b601f01601f1916919091016060019392505050565b6000835161036e8184602088016102ea565b8351908301906103828183602088016102ea565b0194935050505056fe608060405260405161078d38038061078d83398101604081905261002291610337565b61004d60017f360894a13ba1a3210667c828492db98dca3e2076cc3735a920a3ca505d382bbd610405565b600080516020610746833981519152146100695761006961042a565b6100758282600061007c565b505061048f565b610085836100b2565b6000825111806100925750805b156100ad576100ab83836100f260201b6100291760201c565b505b505050565b6100bb8161011e565b6040516001600160a01b038216907fbc7cd75a20ee27fd9adebab32041f755214dbc6bffa90cc0225b39da2e5c2d3b90600090a250565b60606101178383604051806060016040528060278152602001610766602791396101de565b9392505050565b610131816102b360201b6100551760201c565b6101985760405162461bcd60e51b815260206004820152602d60248201527f455243313936373a206e657720696d706c656d656e746174696f6e206973206e60448201526c1bdd08184818dbdb9d1c9858dd609a1b60648201526084015b60405180910390fd5b806101bd60008051602061074683398151915260001b6102b960201b61005b1760201c565b80546001600160a01b0319166001600160a01b039290921691909117905550565b6060833b61023d5760405162461bcd60e51b815260206004820152602660248201527f416464726573733a2064656c65676174652063616c6c20746f206e6f6e2d636f6044820152651b9d1c9858dd60d21b606482015260840161018f565b600080856001600160a01b0316856040516102589190610440565b600060405180830381855af49150503d8060008114610293576040519150601f19603f3d011682016040523d82523d6000602084013e610298565b606091505b5090925090506102a98282866102bc565b9695505050505050565b3b151590565b90565b606083156102cb575081610117565b8251156102db5782518084602001fd5b8160405162461bcd60e51b815260040161018f919061045c565b634e487b7160e01b600052604160045260246000fd5b60005b8381101561032657818101518382015260200161030e565b838111156100ab5750506000910152565b6000806040838503121561034a57600080fd5b82516001600160a01b038116811461036157600080fd5b60208401519092506001600160401b038082111561037e57600080fd5b818501915085601f83011261039257600080fd5b8151818111156103a4576103a46102f5565b604051601f8201601f19908116603f011681019083821181831017156103cc576103cc6102f5565b816040528281528860208487010111156103e557600080fd5b6103f683602083016020880161030b565b80955050505050509250929050565b60008282101561042557634e487b7160e01b600052601160045260246000fd5b500390565b634e487b7160e01b600052600160045260246000fd5b6000825161045281846020870161030b565b9190910192915050565b602081526000825180602084015261047b81604085016020870161030b565b601f01601f19169190910160400192915050565b6102a88061049e6000396000f3fe60806040523661001357610011610017565b005b6100115b61002761002261005e565b610096565b565b606061004e838360405180606001604052806027815260200161024c602791396100ba565b9392505050565b3b151590565b90565b60006100917f360894a13ba1a3210667c828492db98dca3e2076cc3735a920a3ca505d382bbc546001600160a01b031690565b905090565b3660008037600080366000845af43d6000803e8080156100b5573d6000f35b3d6000fd5b6060833b61011e5760405162461bcd60e51b815260206004820152602660248201527f416464726573733a2064656c65676174652063616c6c20746f206e6f6e2d636f6044820152651b9d1c9858dd60d21b60648201526084015b60405180910390fd5b600080856001600160a01b03168560405161013991906101fc565b600060405180830381855af49150503d8060008114610174576040519150601f19603f3d011682016040523d82523d6000602084013e610179565b606091505b5091509150610189828286610193565b9695505050505050565b606083156101a257508161004e565b8251156101b25782518084602001fd5b8160405162461bcd60e51b81526004016101159190610218565b60005b838110156101e75781810151838201526020016101cf565b838111156101f6576000848401525b50505050565b6000825161020e8184602087016101cc565b9190910192915050565b60208152600082518060208401526102378160408501602087016101cc565b601f01601f1916919091016040019291505056fe416464726573733a206c6f772d6c6576656c2064656c65676174652063616c6c206661696c6564a2646970667358221220e3062765b0c8dcab315a475e73f90b069462751cfd05e9d1427068459c3554d664736f6c634300080e0033360894a13ba1a3210667c828492db98dca3e2076cc3735a920a3ca505d382bbc416464726573733a206c6f772d6c6576656c2064656c65676174652063616c6c206661696c6564a26469706673582212207b42bfe1c5ed09d09cba81150055a49ad571fc20f8ed76bf40abe243743274c764736f6c634300080e003360c06040523480156200001157600080fd5b506040516200207038038062002070833981016040819052620000349162000118565b7f33e4b41198cc5b8053630ed667ea7c0c4c873f7fc8d9a478b5d7259cec0a4a006080526001600160a01b03811660a0526200006f62000076565b506200014a565b60006200008260805190565b805490915068010000000000000000900460ff1615620000b55760405163f92ee8a960e01b815260040160405180910390fd5b80546001600160401b0390811614620001155780546001600160401b0319166001600160401b0390811782556040519081527fc7f505b2f371ae2175ee4913f4499e1f2633a7b5936321eed1cdaeb6115181d29060200160405180910390a15b50565b6000602082840312156200012b57600080fd5b81516001600160a01b03811681146200014357600080fd5b9392505050565b60805160a051611ecf620001a16000396000818161036201528181610719015281816107a10152818161097c01528181610b2101528181610ce101528181610f110152611172015260006109ef0152611ecf6000f3fe6080604052600436106101435760003560e01c80634f1ef286116100b6578063c399ec881161006f578063c399ec88146103d5578063c4d66de8146103ea578063d087d2881461040a578063f23a6e611461041f578063f2fde38b1461044c578063f698da251461046c57600080fd5b80634f1ef286146102e65780638da5cb5b146102f9578063a786cac914610326578063b0d691fe14610353578063b61d27f614610386578063bc197c81146103a657600080fd5b806318dfb3c71161010857806318dfb3c71461023e5780633659cfe61461025e5780633a871cdd1461027e57806347e1da2a1461029e5780634a58db19146102be5780634d44560d146102c657600080fd5b806223de291461014f57806301ffc9a7146101765780630a1028c4146101ab578063150b7a02146101d95780631626ba7e1461021e57600080fd5b3661014a57005b600080fd5b34801561015b57600080fd5b5061017461016a366004611717565b5050505050505050565b005b34801561018257600080fd5b506101966101913660046117c7565b610481565b60405190151581526020015b60405180910390f35b3480156101b757600080fd5b506101cb6101c6366004611893565b6104d3565b6040519081526020016101a2565b3480156101e557600080fd5b506102056101f43660046118cf565b630a85bd0160e11b95945050505050565b6040516001600160e01b031990911681526020016101a2565b34801561022a57600080fd5b50610205610239366004611941565b6104ec565b34801561024a57600080fd5b506101746102593660046119cb565b61055e565b34801561026a57600080fd5b50610174610279366004611a36565b61062c565b34801561028a57600080fd5b506101cb610299366004611a53565b610653565b3480156102aa57600080fd5b506101746102b9366004611aa6565b610679565b610174610717565b3480156102d257600080fd5b506101746102e1366004611b3f565b610797565b6101746102f4366004611b6b565b610820565b34801561030557600080fd5b5061030e610839565b6040516001600160a01b0390911681526020016101a2565b34801561033257600080fd5b50610346610341366004611893565b61086c565b6040516101a29190611bfc565b34801561035f57600080fd5b507f000000000000000000000000000000000000000000000000000000000000000061030e565b34801561039257600080fd5b506101746103a1366004611c0f565b61090d565b3480156103b257600080fd5b506102056103c1366004611c5e565b63bc197c8160e01b98975050505050505050565b3480156103e157600080fd5b506101cb61095c565b3480156103f657600080fd5b50610174610405366004611a36565b6109ed565b34801561041657600080fd5b506101cb610afa565b34801561042b57600080fd5b5061020561043a366004611cfb565b63f23a6e6160e01b9695505050505050565b34801561045857600080fd5b50610174610467366004611a36565b610b50565b34801561047857600080fd5b506101cb610bad565b60006001600160e01b03198216630a85bd0160e11b14806104b257506001600160e01b03198216630271189760e51b145b806104cd57506001600160e01b031982166301ffc9a760e01b145b92915050565b60006104de8261086c565b805190602001209050919050565b6000806105198460405160200161050591815260200190565b60405160208183030381529060405261086c565b8051602082012090915061053561052e610839565b8286610c75565b1561054c5750630b135d3f60e11b91506104cd9050565b506001600160e01b0319949350505050565b610566610cd6565b8281146105865760405163512509d360e11b815260040160405180910390fd5b8260005b818110156106245761061c8686838181106105a7576105a7611d64565b90506020020160208101906105bc9190611a36565b60008686858181106105d0576105d0611d64565b90506020028101906105e29190611d7a565b8080601f016020809104026020016040519081016040528093929190818152602001838380828437600092019190915250610d4a92505050565b60010161058a565b505050505050565b61063581610dba565b61065081604051806020016040528060008152506000610dc2565b50565b600061065d610f06565b6106678484610f7e565b9050610672826110a3565b9392505050565b610681610cd6565b84811415806106905750848314155b156106ae5760405163512509d360e11b815260040160405180910390fd5b8460005b8181101561016a5761070f8888838181106106cf576106cf611d64565b90506020020160208101906106e49190611a36565b8787848181106106f6576106f6611d64565b905060200201358686858181106105d0576105d0611d64565b6001016106b2565b7f000000000000000000000000000000000000000000000000000000000000000060405163b760faf960e01b81523060048201526001600160a01b03919091169063b760faf99034906024016000604051808303818588803b15801561077c57600080fd5b505af1158015610790573d6000803e3d6000fd5b5050505050565b61079f6110f0565b7f000000000000000000000000000000000000000000000000000000000000000060405163040b850f60e31b81526001600160a01b03848116600483015260248201849052919091169063205c287890604401600060405180830381600087803b15801561080c57600080fd5b505af1158015610624573d6000803e3d6000fd5b61082982610dba565b61083582826001610dc2565b5050565b60007f691ec1a18226d004c07c9f8e5c4a6ff15a7b38db267cf7e3c945aef8be5122005b546001600160a01b0316919050565b606060007f5e3baca2936049843f06038876a12f03627b5edc98025751ecf2ac756264019960001b83805190602001206040516020016108b6929190918252602082015260400190565b6040516020818303038152906040528051906020012090506108d6610bad565b60405161190160f01b6020820152602281019190915260428101829052606201604051602081830303815290604052915050919050565b610915610cd6565b610956848484848080601f016020809104026020016040519081016040528093929190818152602001838380828437600092019190915250610d4a92505050565b50505050565b6040516370a0823160e01b81523060048201526000906001600160a01b037f000000000000000000000000000000000000000000000000000000000000000016906370a08231906024015b602060405180830381865afa1580156109c4573d6000803e3d6000fd5b505050506040513d601f19601f820116820180604052508101906109e89190611dc0565b905090565b7f00000000000000000000000000000000000000000000000000000000000000008054600160401b810460ff1615906001600160401b0316600081158015610a325750825b90506000826001600160401b03166001148015610a4e5750303b155b905081158015610a5c575080155b15610a7a5760405163f92ee8a960e01b815260040160405180910390fd5b845467ffffffffffffffff191660011785558315610aa457845460ff60401b1916600160401b1785555b610aad86611103565b831561062457845460ff60401b19168555604051600181527fc7f505b2f371ae2175ee4913f4499e1f2633a7b5936321eed1cdaeb6115181d29060200160405180910390a1505050505050565b604051631aab3f0d60e11b8152306004820152600060248201819052906001600160a01b037f000000000000000000000000000000000000000000000000000000000000000016906335567e1a906044016109a7565b610b586110f0565b6001600160a01b0381161580610b7657506001600160a01b03811630145b15610ba45760405163b20f76e360e01b81526001600160a01b03821660048201526024015b60405180910390fd5b610650816111f2565b60007f8b73c3c69bb8fe3d512ecc4cf759cc79239f7b179b0ffacaa9a75d522b39400f60001b604051602001610c03906020808252600c908201526b131a59da1d1058d8dbdd5b9d60a21b604082015260600190565b604051602081830303815290604052604051602001610c37906020808252600190820152603160f81b604082015260600190565b60408051601f1981840301815290829052610c5a93929146903090602001611dd9565b60405160208183030381529060405280519060200120905090565b6000806000610c84858561129c565b90925090506000816003811115610c9d57610c9d611e27565b148015610cbb5750856001600160a01b0316826001600160a01b0316145b80610ccc5750610ccc8686866112e1565b9695505050505050565b336001600160a01b037f00000000000000000000000000000000000000000000000000000000000000001614801590610d285750610d12610839565b6001600160a01b0316336001600160a01b031614155b15610d4857604051634a0bfec160e01b8152336004820152602401610b9b565b565b600080846001600160a01b03168484604051610d669190611e3d565b60006040518083038185875af1925050503d8060008114610da3576040519150601f19603f3d011682016040523d82523d6000602084013e610da8565b606091505b50915091508161079057805160208201fd5b6106506110f0565b6000610dcc6113cd565b9050610dd7846113f5565b600083511180610de45750815b15610df557610df3848461149a565b505b7f4910fdfa16fed3260ed0e7147f7cc6da11a60208b5b9406d12a635614ffd9143805460ff1661079057805460ff191660011781556040516001600160a01b0383166024820152610e7490869060440160408051601f198184030181529190526020810180516001600160e01b0316631b2ce7f360e11b17905261149a565b50805460ff19168155610e856113cd565b6001600160a01b0316826001600160a01b031614610efd5760405162461bcd60e51b815260206004820152602f60248201527f45524331393637557067726164653a207570677261646520627265616b73206660448201526e75727468657220757067726164657360881b6064820152608401610b9b565b610790856114bf565b336001600160a01b037f00000000000000000000000000000000000000000000000000000000000000001614610d485760405162461bcd60e51b815260206004820152601c60248201527f6163636f756e743a206e6f742066726f6d20456e747279506f696e74000000006044820152606401610b9b565b600080610f89610839565b90506000610fe4846040517f19457468657265756d205369676e6564204d6573736167653a0a3332000000006020820152603c8101829052600090605c01604051602081830303815290604052805190602001209050919050565b90506000610ff6610140870187611d7a565b8080601f016020809104026020016040519081016040528093929190818152602001838380828437600092018290525093945083925061103a91508590508461129c565b9092509050600081600381111561105357611053611e27565b1480156110715750846001600160a01b0316826001600160a01b0316145b8061108257506110828588856112e1565b15611095576000955050505050506104cd565b506001979650505050505050565b801561065057604051600090339060001990849084818181858888f193505050503d8060008114610790576040519150601f19603f3d011682016040523d82523d6000602084013e610790565b333014801590610d285750610d12610839565b6001600160a01b03811661112d5760405163b20f76e360e01b815260006004820152602401610b9b565b807f691ec1a18226d004c07c9f8e5c4a6ff15a7b38db267cf7e3c945aef8be51220080546001600160a01b0319166001600160a01b03928316179055604051828216917f000000000000000000000000000000000000000000000000000000000000000016907fec6a23b49d2c363d250c9dda15610e835d428207d15ddb36a6c230e37371ddf190600090a36040516001600160a01b038216906000907f8be0079c531659141344cd1fd0a4f28419497f9722a3daafe3b4186f6b6457e0908290a350565b7f691ec1a18226d004c07c9f8e5c4a6ff15a7b38db267cf7e3c945aef8be51220080546001600160a01b0390811690831681900361124e5760405163b20f76e360e01b81526001600160a01b0384166004820152602401610b9b565b81546001600160a01b0319166001600160a01b038481169182178455604051908316907f8be0079c531659141344cd1fd0a4f28419497f9722a3daafe3b4186f6b6457e090600090a3505050565b60008082516041036112d25760208301516040840151606085015160001a6112c6878285856114ff565b945094505050506112da565b506000905060025b9250929050565b6000806000856001600160a01b0316631626ba7e60e01b868660405160240161130b929190611e59565b60408051601f198184030181529181526020820180516001600160e01b03166001600160e01b03199094169390931790925290516113499190611e3d565b600060405180830381855afa9150503d8060008114611384576040519150601f19603f3d011682016040523d82523d6000602084013e611389565b606091505b509150915081801561139d57506020815110155b8015610ccc57508051630b135d3f60e11b906113c29083016020908101908401611dc0565b149695505050505050565b60007f360894a13ba1a3210667c828492db98dca3e2076cc3735a920a3ca505d382bbc61085d565b803b6114595760405162461bcd60e51b815260206004820152602d60248201527f455243313936373a206e657720696d706c656d656e746174696f6e206973206e60448201526c1bdd08184818dbdb9d1c9858dd609a1b6064820152608401610b9b565b7f360894a13ba1a3210667c828492db98dca3e2076cc3735a920a3ca505d382bbc80546001600160a01b0319166001600160a01b0392909216919091179055565b60606106728383604051806060016040528060278152602001611e73602791396115c3565b6114c8816113f5565b6040516001600160a01b038216907fbc7cd75a20ee27fd9adebab32041f755214dbc6bffa90cc0225b39da2e5c2d3b90600090a250565b6000807f7fffffffffffffffffffffffffffffff5d576e7357a4501ddfe92f46681b20a083111561153657506000905060036115ba565b6040805160008082526020820180845289905260ff881692820192909252606081018690526080810185905260019060a0016020604051602081039080840390855afa15801561158a573d6000803e3d6000fd5b5050604051601f1901519150506001600160a01b0381166115b3576000600192509250506115ba565b9150600090505b94509492505050565b6060833b6116225760405162461bcd60e51b815260206004820152602660248201527f416464726573733a2064656c65676174652063616c6c20746f206e6f6e2d636f6044820152651b9d1c9858dd60d21b6064820152608401610b9b565b600080856001600160a01b03168560405161163d9190611e3d565b600060405180830381855af49150503d8060008114611678576040519150601f19603f3d011682016040523d82523d6000602084013e61167d565b606091505b5091509150610ccc82828660608315611697575081610672565b8251156116a75782518084602001fd5b8160405162461bcd60e51b8152600401610b9b9190611bfc565b6001600160a01b038116811461065057600080fd5b60008083601f8401126116e857600080fd5b5081356001600160401b038111156116ff57600080fd5b6020830191508360208285010111156112da57600080fd5b60008060008060008060008060c0898b03121561173357600080fd5b883561173e816116c1565b9750602089013561174e816116c1565b9650604089013561175e816116c1565b95506060890135945060808901356001600160401b038082111561178157600080fd5b61178d8c838d016116d6565b909650945060a08b01359150808211156117a657600080fd5b506117b38b828c016116d6565b999c989b5096995094979396929594505050565b6000602082840312156117d957600080fd5b81356001600160e01b03198116811461067257600080fd5b634e487b7160e01b600052604160045260246000fd5b600082601f83011261181857600080fd5b81356001600160401b0380821115611832576118326117f1565b604051601f8301601f19908116603f0116810190828211818310171561185a5761185a6117f1565b8160405283815286602085880101111561187357600080fd5b836020870160208301376000602085830101528094505050505092915050565b6000602082840312156118a557600080fd5b81356001600160401b038111156118bb57600080fd5b6118c784828501611807565b949350505050565b6000806000806000608086880312156118e757600080fd5b85356118f2816116c1565b94506020860135611902816116c1565b93506040860135925060608601356001600160401b0381111561192457600080fd5b611930888289016116d6565b969995985093965092949392505050565b6000806040838503121561195457600080fd5b8235915060208301356001600160401b0381111561197157600080fd5b61197d85828601611807565b9150509250929050565b60008083601f84011261199957600080fd5b5081356001600160401b038111156119b057600080fd5b6020830191508360208260051b85010111156112da57600080fd5b600080600080604085870312156119e157600080fd5b84356001600160401b03808211156119f857600080fd5b611a0488838901611987565b90965094506020870135915080821115611a1d57600080fd5b50611a2a87828801611987565b95989497509550505050565b600060208284031215611a4857600080fd5b8135610672816116c1565b600080600060608486031215611a6857600080fd5b83356001600160401b03811115611a7e57600080fd5b84016101608187031215611a9157600080fd5b95602085013595506040909401359392505050565b60008060008060008060608789031215611abf57600080fd5b86356001600160401b0380821115611ad657600080fd5b611ae28a838b01611987565b90985096506020890135915080821115611afb57600080fd5b611b078a838b01611987565b90965094506040890135915080821115611b2057600080fd5b50611b2d89828a01611987565b979a9699509497509295939492505050565b60008060408385031215611b5257600080fd5b8235611b5d816116c1565b946020939093013593505050565b60008060408385031215611b7e57600080fd5b8235611b89816116c1565b915060208301356001600160401b0381111561197157600080fd5b60005b83811015611bbf578181015183820152602001611ba7565b838111156109565750506000910152565b60008151808452611be8816020860160208601611ba4565b601f01601f19169290920160200192915050565b6020815260006106726020830184611bd0565b60008060008060608587031215611c2557600080fd5b8435611c30816116c1565b93506020850135925060408501356001600160401b03811115611c5257600080fd5b611a2a878288016116d6565b60008060008060008060008060a0898b031215611c7a57600080fd5b8835611c85816116c1565b97506020890135611c95816116c1565b965060408901356001600160401b0380821115611cb157600080fd5b611cbd8c838d01611987565b909850965060608b0135915080821115611cd657600080fd5b611ce28c838d01611987565b909650945060808b01359150808211156117a657600080fd5b60008060008060008060a08789031215611d1457600080fd5b8635611d1f816116c1565b95506020870135611d2f816116c1565b9450604087013593506060870135925060808701356001600160401b03811115611d5857600080fd5b611b2d89828a016116d6565b634e487b7160e01b600052603260045260246000fd5b6000808335601e19843603018112611d9157600080fd5b8301803591506001600160401b03821115611dab57600080fd5b6020019150368190038213156112da57600080fd5b600060208284031215611dd257600080fd5b5051919050565b85815260a060208201526000611df260a0830187611bd0565b8281036040840152611e048187611bd0565b606084019590955250506001600160a01b03919091166080909101529392505050565b634e487b7160e01b600052602160045260246000fd5b60008251611e4f818460208701611ba4565b9190910192915050565b8281526040602082015260006118c76040830184611bd056fe416464726573733a206c6f772d6c6576656c2064656c65676174652063616c6c206661696c6564a2646970667358221220df6a7506f807397b1ef69c0bb4c33511597222829cf4bd76c9cbbae3febc6a5764736f6c634300080e0033",
    "linkReferences": {}
  },
  "methodIdentifiers": {
    "accountImplementation()": "11464fbe",
    "createAccount(address,uint256)": "5fbfb9cf",
    "getAddress(address,uint256)": "8cb84e18"
  },
  "id": 46
}